{
  "_format": "hh-sol-artifact-1",
  "contractName": "Identity",
  "sourceName": "contracts/usecase.sol",
  "abi": [
    {
      "inputs": [
        {
          "internalType": "string",
          "name": "firstName",
          "type": "string"
        },
        {
          "internalType": "string",
          "name": "lastName",
          "type": "string"
        },
        {
          "internalType": "string",
          "name": "dob",
          "type": "string"
        },
        {
          "internalType": "string",
          "name": "country",
          "type": "string"
        }
      ],
      "name": "addUser",
      "outputs": [
        {
          "internalType": "bool",
          "name": "success",
          "type": "bool"
        }
      ],
      "stateMutability": "nonpayable",
      "type": "function"
    },
    {
      "inputs": [
        {
          "internalType": "uint256",
          "name": "_index",
          "type": "uint256"
        }
      ],
      "name": "getUser",
      "outputs": [
        {
          "internalType": "string",
          "name": "",
          "type": "string"
        },
        {
          "internalType": "string",
          "name": "",
          "type": "string"
        },
        {
          "internalType": "string",
          "name": "",
          "type": "string"
        },
        {
          "internalType": "string",
          "name": "",
          "type": "string"
        }
      ],
      "stateMutability": "view",
      "type": "function"
    },
    {
      "inputs": [],
      "name": "isUserVerified",
      "outputs": [
        {
          "internalType": "bool",
          "name": "",
          "type": "bool"
        }
      ],
      "stateMutability": "view",
      "type": "function"
    },
    {
      "inputs": [],
      "name": "locationVerified",
      "outputs": [
        {
          "internalType": "bool",
          "name": "",
          "type": "bool"
        }
      ],
      "stateMutability": "view",
      "type": "function"
    },
    {
      "inputs": [
        {
          "internalType": "uint256",
          "name": "",
          "type": "uint256"
        }
      ],
      "name": "people",
      "outputs": [
        {
          "internalType": "string",
          "name": "firstName",
          "type": "string"
        },
        {
          "internalType": "string",
          "name": "lastName",
          "type": "string"
        },
        {
          "internalType": "string",
          "name": "dob",
          "type": "string"
        },
        {
          "internalType": "string",
          "name": "country",
          "type": "string"
        },
        {
          "internalType": "bool",
          "name": "verified",
          "type": "bool"
        }
      ],
      "stateMutability": "view",
      "type": "function"
    },
    {
      "inputs": [
        {
          "internalType": "address",
          "name": "",
          "type": "address"
        }
      ],
      "name": "userList",
      "outputs": [
        {
          "internalType": "string",
          "name": "firstName",
          "type": "string"
        },
        {
          "internalType": "string",
          "name": "lastName",
          "type": "string"
        },
        {
          "internalType": "string",
          "name": "dob",
          "type": "string"
        },
        {
          "internalType": "string",
          "name": "country",
          "type": "string"
        },
        {
          "internalType": "bool",
          "name": "verified",
          "type": "bool"
        }
      ],
      "stateMutability": "view",
      "type": "function"
    }
  ],
  "bytecode": "0x608060405234801561001057600080fd5b5061198c806100206000396000f3fe608060405234801561001057600080fd5b50600436106100625760003560e01c806301cda3ac146100675780630743ff86146100975780631b4e7bd2146100b557806358c87dbf146100e95780639e7a13ad14610107578063b0467deb1461013b575b600080fd5b610081600480360381019061007c9190611240565b61016e565b60405161008e9190611332565b60405180910390f35b61009f61030a565b6040516100ac9190611332565b60405180910390f35b6100cf60048036038101906100ca91906113ab565b61064f565b6040516100e0959493929190611457565b60405180910390f35b6100f16108b2565b6040516100fe9190611332565b60405180910390f35b610121600480360381019061011c91906114fc565b610b6e565b604051610132959493929190611457565b60405180910390f35b610155600480360381019061015091906114fc565b610de1565b6040516101659493929190611529565b60405180910390f35b6000806040518060a00160405280878152602001868152602001858152602001848152602001600115158152509050806000803373ffffffffffffffffffffffffffffffffffffffff1673ffffffffffffffffffffffffffffffffffffffff16815260200190815260200160002060008201518160000190816101f19190611796565b5060208201518160010190816102079190611796565b50604082015181600201908161021d9190611796565b5060608201518160030190816102339190611796565b5060808201518160040160006101000a81548160ff021916908315150217905550905050600181908060018154018082558091505060019003906000526020600020906005020160009091909190915060008201518160000190816102989190611796565b5060208201518160010190816102ae9190611796565b5060408201518160020190816102c49190611796565b5060608201518160030190816102da9190611796565b5060808201518160040160006101000a81548160ff02191690831515021790555050506001915050949350505050565b6000806000803373ffffffffffffffffffffffffffffffffffffffff1673ffffffffffffffffffffffffffffffffffffffff1681526020019081526020016000206040518060a0016040529081600082018054610366906115b9565b80601f0160208091040260200160405190810160405280929190818152602001828054610392906115b9565b80156103df5780601f106103b4576101008083540402835291602001916103df565b820191906000526020600020905b8154815290600101906020018083116103c257829003601f168201915b505050505081526020016001820180546103f8906115b9565b80601f0160208091040260200160405190810160405280929190818152602001828054610424906115b9565b80156104715780601f1061044657610100808354040283529160200191610471565b820191906000526020600020905b81548152906001019060200180831161045457829003601f168201915b5050505050815260200160028201805461048a906115b9565b80601f01602080910402602001604051908101604052809291908181526020018280546104b6906115b9565b80156105035780601f106104d857610100808354040283529160200191610503565b820191906000526020600020905b8154815290600101906020018083116104e657829003601f168201915b5050505050815260200160038201805461051c906115b9565b80601f0160208091040260200160405190810160405280929190818152602001828054610548906115b9565b80156105955780601f1061056a57610100808354040283529160200191610595565b820191906000526020600020905b81548152906001019060200180831161057857829003601f168201915b505050505081526020016004820160009054906101000a900460ff161515151581525050905060006040518060400160405280600981526020017f737269206c616e6b61000000000000000000000000000000000000000000000081525090508060405160200161060691906118a4565b60405160208183030381529060405280519060200120826060015160405160200161063191906118a4565b60405160208183030381529060405280519060200120149250505090565b6000602052806000526040600020600091509050806000018054610672906115b9565b80601f016020809104026020016040519081016040528092919081815260200182805461069e906115b9565b80156106eb5780601f106106c0576101008083540402835291602001916106eb565b820191906000526020600020905b8154815290600101906020018083116106ce57829003601f168201915b505050505090806001018054610700906115b9565b80601f016020809104026020016040519081016040528092919081815260200182805461072c906115b9565b80156107795780601f1061074e57610100808354040283529160200191610779565b820191906000526020600020905b81548152906001019060200180831161075c57829003601f168201915b50505050509080600201805461078e906115b9565b80601f01602080910402602001604051908101604052809291908181526020018280546107ba906115b9565b80156108075780601f106107dc57610100808354040283529160200191610807565b820191906000526020600020905b8154815290600101906020018083116107ea57829003601f168201915b50505050509080600301805461081c906115b9565b80601f0160208091040260200160405190810160405280929190818152602001828054610848906115b9565b80156108955780601f1061086a57610100808354040283529160200191610895565b820191906000526020600020905b81548152906001019060200180831161087857829003601f168201915b5050505050908060040160009054906101000a900460ff16905085565b6000806000803373ffffffffffffffffffffffffffffffffffffffff1673ffffffffffffffffffffffffffffffffffffffff1681526020019081526020016000206040518060a001604052908160008201805461090e906115b9565b80601f016020809104026020016040519081016040528092919081815260200182805461093a906115b9565b80156109875780601f1061095c57610100808354040283529160200191610987565b820191906000526020600020905b81548152906001019060200180831161096a57829003601f168201915b505050505081526020016001820180546109a0906115b9565b80601f01602080910402602001604051908101604052809291908181526020018280546109cc906115b9565b8015610a195780601f106109ee57610100808354040283529160200191610a19565b820191906000526020600020905b8154815290600101906020018083116109fc57829003601f168201915b50505050508152602001600282018054610a32906115b9565b80601f0160208091040260200160405190810160405280929190818152602001828054610a5e906115b9565b8015610aab5780601f10610a8057610100808354040283529160200191610aab565b820191906000526020600020905b815481529060010190602001808311610a8e57829003601f168201915b50505050508152602001600382018054610ac4906115b9565b80601f0160208091040260200160405190810160405280929190818152602001828054610af0906115b9565b8015610b3d5780601f10610b1257610100808354040283529160200191610b3d565b820191906000526020600020905b815481529060010190602001808311610b2057829003601f168201915b505050505081526020016004820160009054906101000a900460ff1615151515815250509050806080015191505090565b60018181548110610b7e57600080fd5b9060005260206000209060050201600091509050806000018054610ba1906115b9565b80601f0160208091040260200160405190810160405280929190818152602001828054610bcd906115b9565b8015610c1a5780601f10610bef57610100808354040283529160200191610c1a565b820191906000526020600020905b815481529060010190602001808311610bfd57829003601f168201915b505050505090806001018054610c2f906115b9565b80601f0160208091040260200160405190810160405280929190818152602001828054610c5b906115b9565b8015610ca85780601f10610c7d57610100808354040283529160200191610ca8565b820191906000526020600020905b815481529060010190602001808311610c8b57829003601f168201915b505050505090806002018054610cbd906115b9565b80601f0160208091040260200160405190810160405280929190818152602001828054610ce9906115b9565b8015610d365780601f10610d0b57610100808354040283529160200191610d36565b820191906000526020600020905b815481529060010190602001808311610d1957829003601f168201915b505050505090806003018054610d4b906115b9565b80601f0160208091040260200160405190810160405280929190818152602001828054610d77906115b9565b8015610dc45780601f10610d9957610100808354040283529160200191610dc4565b820191906000526020600020905b815481529060010190602001808311610da757829003601f168201915b5050505050908060040160009054906101000a900460ff16905085565b6060806060806001805490508510610e2e576040517f08c379a0000000000000000000000000000000000000000000000000000000008152600401610e2590611907565b60405180910390fd5b600060018681548110610e4457610e43611927565b5b90600052602060002090600502016040518060a0016040529081600082018054610e6d906115b9565b80601f0160208091040260200160405190810160405280929190818152602001828054610e99906115b9565b8015610ee65780601f10610ebb57610100808354040283529160200191610ee6565b820191906000526020600020905b815481529060010190602001808311610ec957829003601f168201915b50505050508152602001600182018054610eff906115b9565b80601f0160208091040260200160405190810160405280929190818152602001828054610f2b906115b9565b8015610f785780601f10610f4d57610100808354040283529160200191610f78565b820191906000526020600020905b815481529060010190602001808311610f5b57829003601f168201915b50505050508152602001600282018054610f91906115b9565b80601f0160208091040260200160405190810160405280929190818152602001828054610fbd906115b9565b801561100a5780601f10610fdf5761010080835404028352916020019161100a565b820191906000526020600020905b815481529060010190602001808311610fed57829003601f168201915b50505050508152602001600382018054611023906115b9565b80601f016020809104026020016040519081016040528092919081815260200182805461104f906115b9565b801561109c5780601f106110715761010080835404028352916020019161109c565b820191906000526020600020905b81548152906001019060200180831161107f57829003601f168201915b505050505081526020016004820160009054906101000a900460ff161515151581525050905080600001518160200151826040015183606001519450945094509450509193509193565b6000604051905090565b600080fd5b600080fd5b600080fd5b600080fd5b6000601f19601f8301169050919050565b7f4e487b7100000000000000000000000000000000000000000000000000000000600052604160045260246000fd5b61114d82611104565b810181811067ffffffffffffffff8211171561116c5761116b611115565b5b80604052505050565b600061117f6110e6565b905061118b8282611144565b919050565b600067ffffffffffffffff8211156111ab576111aa611115565b5b6111b482611104565b9050602081019050919050565b82818337600083830152505050565b60006111e36111de84611190565b611175565b9050828152602081018484840111156111ff576111fe6110ff565b5b61120a8482856111c1565b509392505050565b600082601f830112611227576112266110fa565b5b81356112378482602086016111d0565b91505092915050565b6000806000806080858703121561125a576112596110f0565b5b600085013567ffffffffffffffff811115611278576112776110f5565b5b61128487828801611212565b945050602085013567ffffffffffffffff8111156112a5576112a46110f5565b5b6112b187828801611212565b935050604085013567ffffffffffffffff8111156112d2576112d16110f5565b5b6112de87828801611212565b925050606085013567ffffffffffffffff8111156112ff576112fe6110f5565b5b61130b87828801611212565b91505092959194509250565b60008115159050919050565b61132c81611317565b82525050565b60006020820190506113476000830184611323565b92915050565b600073ffffffffffffffffffffffffffffffffffffffff82169050919050565b60006113788261134d565b9050919050565b6113888161136d565b811461139357600080fd5b50565b6000813590506113a58161137f565b92915050565b6000602082840312156113c1576113c06110f0565b5b60006113cf84828501611396565b91505092915050565b600081519050919050565b600082825260208201905092915050565b60005b838110156114125780820151818401526020810190506113f7565b60008484015250505050565b6000611429826113d8565b61143381856113e3565b93506114438185602086016113f4565b61144c81611104565b840191505092915050565b600060a0820190508181036000830152611471818861141e565b90508181036020830152611485818761141e565b90508181036040830152611499818661141e565b905081810360608301526114ad818561141e565b90506114bc6080830184611323565b9695505050505050565b6000819050919050565b6114d9816114c6565b81146114e457600080fd5b50565b6000813590506114f6816114d0565b92915050565b600060208284031215611512576115116110f0565b5b6000611520848285016114e7565b91505092915050565b60006080820190508181036000830152611543818761141e565b90508181036020830152611557818661141e565b9050818103604083015261156b818561141e565b9050818103606083015261157f818461141e565b905095945050505050565b7f4e487b7100000000000000000000000000000000000000000000000000000000600052602260045260246000fd5b600060028204905060018216806115d157607f821691505b6020821081036115e4576115e361158a565b5b50919050565b60008190508160005260206000209050919050565b60006020601f8301049050919050565b600082821b905092915050565b60006008830261164c7fffffffffffffffffffffffffffffffffffffffffffffffffffffffffffffffff8261160f565b611656868361160f565b95508019841693508086168417925050509392505050565b6000819050919050565b600061169361168e611689846114c6565b61166e565b6114c6565b9050919050565b6000819050919050565b6116ad83611678565b6116c16116b98261169a565b84845461161c565b825550505050565b600090565b6116d66116c9565b6116e18184846116a4565b505050565b5b81811015611705576116fa6000826116ce565b6001810190506116e7565b5050565b601f82111561174a5761171b816115ea565b611724846115ff565b81016020851015611733578190505b61174761173f856115ff565b8301826116e6565b50505b505050565b600082821c905092915050565b600061176d6000198460080261174f565b1980831691505092915050565b6000611786838361175c565b9150826002028217905092915050565b61179f826113d8565b67ffffffffffffffff8111156117b8576117b7611115565b5b6117c282546115b9565b6117cd828285611709565b600060209050601f83116001811461180057600084156117ee578287015190505b6117f8858261177a565b865550611860565b601f19841661180e866115ea565b60005b8281101561183657848901518255600182019150602085019450602081019050611811565b86831015611853578489015161184f601f89168261175c565b8355505b6001600288020188555050505b505050505050565b600081905092915050565b600061187e826113d8565b6118888185611868565b93506118988185602086016113f4565b80840191505092915050565b60006118b08284611873565b915081905092915050565b7f496e646578206f7574206f6620626f756e647300000000000000000000000000600082015250565b60006118f16013836113e3565b91506118fc826118bb565b602082019050919050565b60006020820190508181036000830152611920816118e4565b9050919050565b7f4e487b7100000000000000000000000000000000000000000000000000000000600052603260045260246000fdfea2646970667358221220b7767c1f536eb0677b78eb301d7be87d5d1d1a6163dcbc1bb9c27d6b70bcf09764736f6c63430008130033",
  "linkReferences": {},
  "deployedLinkReferences": {}
}