{"contracts/userID.sol":{"UserId":{"abi":[{"anonymous":false,"inputs":[{"indexed":false,"internalType":"uint256","name":"amount","type":"uint256"},{"indexed":true,"internalType":"address","name":"userList","type":"address"}],"name":"idCreated","type":"event"},{"inputs":[{"internalType":"address","name":"","type":"address"}],"name":"UserStruct","outputs":[{"internalType":"string","name":"fname","type":"string"},{"internalType":"string","name":"lname","type":"string"},{"components":[{"internalType":"uint256","name":"year","type":"uint256"},{"internalType":"uint256","name":"month","type":"uint256"},{"internalType":"uint256","name":"day","type":"uint256"}],"internalType":"struct UserId.DOB","name":"dob","type":"tuple"},{"internalType":"string","name":"country","type":"string"},{"internalType":"bool","name":"isVerified","type":"bool"},{"internalType":"uint256","name":"createTime","type":"uint256"},{"internalType":"uint256","name":"index","type":"uint256"},{"internalType":"bool","name":"ageVerified","type":"bool"}],"stateMutability":"view","type":"function"},{"inputs":[{"internalType":"address","name":"userAddress","type":"address"},{"internalType":"string","name":"fname","type":"string"},{"internalType":"string","name":"lname","type":"string"},{"internalType":"uint256","name":"year","type":"uint256"},{"internalType":"uint256","name":"month","type":"uint256"},{"internalType":"uint256","name":"day","type":"uint256"},{"internalType":"string","name":"country","type":"string"}],"name":"createUserId","outputs":[{"internalType":"bool","name":"success","type":"bool"}],"stateMutability":"nonpayable","type":"function"},{"inputs":[{"internalType":"address","name":"userAddress","type":"address"}],"name":"isVerified","outputs":[{"internalType":"bool","name":"isIndeed","type":"bool"}],"stateMutability":"view","type":"function"},{"inputs":[{"internalType":"address","name":"userAddress","type":"address"},{"internalType":"string","name":"country","type":"string"}],"name":"locationVerified","outputs":[{"internalType":"bool","name":"success","type":"bool"}],"stateMutability":"view","type":"function"},{"inputs":[{"internalType":"uint256","name":"","type":"uint256"}],"name":"userList","outputs":[{"internalType":"address","name":"","type":"address"}],"stateMutability":"view","type":"function"},{"inputs":[{"internalType":"address","name":"userAddress","type":"address"},{"internalType":"uint256","name":"ageLimit","type":"uint256"}],"name":"verifyAgeLimit","outputs":[{"internalType":"bool","name":"verify","type":"bool"}],"stateMutability":"nonpayable","type":"function"}],"evm":{"bytecode":{"linkReferences":{},"object":"608060405234801561001057600080fd5b50611705806100206000396000f3fe608060405234801561001057600080fd5b50600436106100625760003560e01c8063147e6d9f1461006757806346ef80fc146100975780634c93c11f146100c757806398760665146100f75780639f4216e81461012e578063b9209e331461015e575b600080fd5b610081600480360381019061007c9190610c22565b61018e565b60405161008e9190610d33565b60405180910390f35b6100b160048036038101906100ac9190610d4e565b6104b2565b6040516100be9190610d33565b60405180910390f35b6100e160048036038101906100dc9190610daa565b61059f565b6040516100ee9190610d33565b60405180910390f35b610111600480360381019061010c9190610dea565b610705565b604051610125989796959493929190610ef6565b60405180910390f35b61014860048036038101906101439190610f8b565b610927565b6040516101559190610fc7565b60405180910390f35b61017860048036038101906101739190610dea565b610966565b6040516101859190610d33565b60405180910390f35b600061019988610966565b156101d9576040517f08c379a00000000000000000000000000000000000000000000000000000000081526004016101d090611054565b60405180910390fd5b86600160008a73ffffffffffffffffffffffffffffffffffffffff1673ffffffffffffffffffffffffffffffffffffffff16815260200190815260200160002060000190816102289190611280565b5085600160008a73ffffffffffffffffffffffffffffffffffffffff1673ffffffffffffffffffffffffffffffffffffffff16815260200190815260200160002060010190816102789190611280565b50604051806060016040528086815260200185815260200184815250600160008a73ffffffffffffffffffffffffffffffffffffffff1673ffffffffffffffffffffffffffffffffffffffff16815260200190815260200160002060020160008201518160000155602082015181600101556040820151816002015590505081600160008a73ffffffffffffffffffffffffffffffffffffffff1673ffffffffffffffffffffffffffffffffffffffff16815260200190815260200160002060050190816103469190611280565b5060018060008a73ffffffffffffffffffffffffffffffffffffffff1673ffffffffffffffffffffffffffffffffffffffff16815260200190815260200160002060060160006101000a81548160ff0219169083151502179055506000889080600181540180825580915050600190039060005260206000200160009091909190916101000a81548173ffffffffffffffffffffffffffffffffffffffff021916908373ffffffffffffffffffffffffffffffffffffffff16021790555060016000805490506104169190611381565b600160008a73ffffffffffffffffffffffffffffffffffffffff1673ffffffffffffffffffffffffffffffffffffffff1681526020019081526020016000206008018190555042600160008a73ffffffffffffffffffffffffffffffffffffffff1673ffffffffffffffffffffffffffffffffffffffff1681526020019081526020016000206007018190555060019050979650505050505050565b60006104bd83610966565b6104fc576040517f08c379a00000000000000000000000000000000000000000000000000000000081526004016104f390611427565b60405180910390fd5b8160405160200161050d9190611483565b60405160208183030381529060405280519060200120600160008573ffffffffffffffffffffffffffffffffffffffff1673ffffffffffffffffffffffffffffffffffffffff168152602001908152602001600020600501604051602001610575919061151d565b604051602081830303815290604052805190602001201461059557600080fd5b6001905092915050565b60006105aa83610966565b6105e9576040517f08c379a00000000000000000000000000000000000000000000000000000000081526004016105e090611580565b60405180910390fd5b60006107b26301e187e0426105fe91906115cf565b6106089190611600565b90506000600160008673ffffffffffffffffffffffffffffffffffffffff1673ffffffffffffffffffffffffffffffffffffffff168152602001908152602001600020600201600001548261065d9190611381565b9050838110156106a2576040517f08c379a000000000000000000000000000000000000000000000000000000000815260040161069990611680565b60405180910390fd5b60018060008773ffffffffffffffffffffffffffffffffffffffff1673ffffffffffffffffffffffffffffffffffffffff16815260200190815260200160002060090160006101000a81548160ff02191690831515021790559250505092915050565b6001602052806000526040600020600091509050806000018054610728906110a3565b80601f0160208091040260200160405190810160405280929190818152602001828054610754906110a3565b80156107a15780601f10610776576101008083540402835291602001916107a1565b820191906000526020600020905b81548152906001019060200180831161078457829003601f168201915b5050505050908060010180546107b6906110a3565b80601f01602080910402602001604051908101604052809291908181526020018280546107e2906110a3565b801561082f5780601f106108045761010080835404028352916020019161082f565b820191906000526020600020905b81548152906001019060200180831161081257829003601f168201915b50505050509080600201604051806060016040529081600082015481526020016001820154815260200160028201548152505090806005018054610872906110a3565b80601f016020809104026020016040519081016040528092919081815260200182805461089e906110a3565b80156108eb5780601f106108c0576101008083540402835291602001916108eb565b820191906000526020600020905b8154815290600101906020018083116108ce57829003601f168201915b5050505050908060060160009054906101000a900460ff16908060070154908060080154908060090160009054906101000a900460ff16905088565b6000818154811061093757600080fd5b906000526020600020016000915054906101000a900473ffffffffffffffffffffffffffffffffffffffff1681565b6000806000805490500361097d5760009050610a2f565b8173ffffffffffffffffffffffffffffffffffffffff166000600160008573ffffffffffffffffffffffffffffffffffffffff1673ffffffffffffffffffffffffffffffffffffffff16815260200190815260200160002060080154815481106109ea576109e96116a0565b5b9060005260206000200160009054906101000a900473ffffffffffffffffffffffffffffffffffffffff1673ffffffffffffffffffffffffffffffffffffffff161490505b919050565b6000604051905090565b600080fd5b600080fd5b600073ffffffffffffffffffffffffffffffffffffffff82169050919050565b6000610a7382610a48565b9050919050565b610a8381610a68565b8114610a8e57600080fd5b50565b600081359050610aa081610a7a565b92915050565b600080fd5b600080fd5b6000601f19601f8301169050919050565b7f4e487b7100000000000000000000000000000000000000000000000000000000600052604160045260246000fd5b610af982610ab0565b810181811067ffffffffffffffff82111715610b1857610b17610ac1565b5b80604052505050565b6000610b2b610a34565b9050610b378282610af0565b919050565b600067ffffffffffffffff821115610b5757610b56610ac1565b5b610b6082610ab0565b9050602081019050919050565b82818337600083830152505050565b6000610b8f610b8a84610b3c565b610b21565b905082815260208101848484011115610bab57610baa610aab565b5b610bb6848285610b6d565b509392505050565b600082601f830112610bd357610bd2610aa6565b5b8135610be3848260208601610b7c565b91505092915050565b6000819050919050565b610bff81610bec565b8114610c0a57600080fd5b50565b600081359050610c1c81610bf6565b92915050565b600080600080600080600060e0888a031215610c4157610c40610a3e565b5b6000610c4f8a828b01610a91565b975050602088013567ffffffffffffffff811115610c7057610c6f610a43565b5b610c7c8a828b01610bbe565b965050604088013567ffffffffffffffff811115610c9d57610c9c610a43565b5b610ca98a828b01610bbe565b9550506060610cba8a828b01610c0d565b9450506080610ccb8a828b01610c0d565b93505060a0610cdc8a828b01610c0d565b92505060c088013567ffffffffffffffff811115610cfd57610cfc610a43565b5b610d098a828b01610bbe565b91505092959891949750929550565b60008115159050919050565b610d2d81610d18565b82525050565b6000602082019050610d486000830184610d24565b92915050565b60008060408385031215610d6557610d64610a3e565b5b6000610d7385828601610a91565b925050602083013567ffffffffffffffff811115610d9457610d93610a43565b5b610da085828601610bbe565b9150509250929050565b60008060408385031215610dc157610dc0610a3e565b5b6000610dcf85828601610a91565b9250506020610de085828601610c0d565b9150509250929050565b600060208284031215610e0057610dff610a3e565b5b6000610e0e84828501610a91565b91505092915050565b600081519050919050565b600082825260208201905092915050565b60005b83811015610e51578082015181840152602081019050610e36565b60008484015250505050565b6000610e6882610e17565b610e728185610e22565b9350610e82818560208601610e33565b610e8b81610ab0565b840191505092915050565b610e9f81610bec565b82525050565b606082016000820151610ebb6000850182610e96565b506020820151610ece6020850182610e96565b506040820151610ee16040850182610e96565b50505050565b610ef081610bec565b82525050565b6000610140820190508181036000830152610f11818b610e5d565b90508181036020830152610f25818a610e5d565b9050610f346040830189610ea5565b81810360a0830152610f468188610e5d565b9050610f5560c0830187610d24565b610f6260e0830186610ee7565b610f70610100830185610ee7565b610f7e610120830184610d24565b9998505050505050505050565b600060208284031215610fa157610fa0610a3e565b5b6000610faf84828501610c0d565b91505092915050565b610fc181610a68565b82525050565b6000602082019050610fdc6000830184610fb8565b92915050565b7f5573657220616c72656164792065786973747320616e6420697320766572696660008201527f6965640000000000000000000000000000000000000000000000000000000000602082015250565b600061103e602383610e22565b915061104982610fe2565b604082019050919050565b6000602082019050818103600083015261106d81611031565b9050919050565b7f4e487b7100000000000000000000000000000000000000000000000000000000600052602260045260246000fd5b600060028204905060018216806110bb57607f821691505b6020821081036110ce576110cd611074565b5b50919050565b60008190508160005260206000209050919050565b60006020601f8301049050919050565b600082821b905092915050565b6000600883026111367fffffffffffffffffffffffffffffffffffffffffffffffffffffffffffffffff826110f9565b61114086836110f9565b95508019841693508086168417925050509392505050565b6000819050919050565b600061117d61117861117384610bec565b611158565b610bec565b9050919050565b6000819050919050565b61119783611162565b6111ab6111a382611184565b848454611106565b825550505050565b600090565b6111c06111b3565b6111cb81848461118e565b505050565b5b818110156111ef576111e46000826111b8565b6001810190506111d1565b5050565b601f82111561123457611205816110d4565b61120e846110e9565b8101602085101561121d578190505b611231611229856110e9565b8301826111d0565b50505b505050565b600082821c905092915050565b600061125760001984600802611239565b1980831691505092915050565b60006112708383611246565b9150826002028217905092915050565b61128982610e17565b67ffffffffffffffff8111156112a2576112a1610ac1565b5b6112ac82546110a3565b6112b78282856111f3565b600060209050601f8311600181146112ea57600084156112d8578287015190505b6112e28582611264565b86555061134a565b601f1984166112f8866110d4565b60005b82811015611320578489015182556001820191506020850194506020810190506112fb565b8683101561133d5784890151611339601f891682611246565b8355505b6001600288020188555050505b505050505050565b7f4e487b7100000000000000000000000000000000000000000000000000000000600052601160045260246000fd5b600061138c82610bec565b915061139783610bec565b92508282039050818111156113af576113ae611352565b5b92915050565b7f5573657220646f6573206e6f74206578697374206f72206973206e6f7420766560008201527f7269666965640000000000000000000000000000000000000000000000000000602082015250565b6000611411602683610e22565b915061141c826113b5565b604082019050919050565b6000602082019050818103600083015261144081611404565b9050919050565b600081905092915050565b600061145d82610e17565b6114678185611447565b9350611477818560208601610e33565b80840191505092915050565b600061148f8284611452565b915081905092915050565b600081546114a7816110a3565b6114b18186611447565b945060018216600081146114cc57600181146114e157611514565b60ff1983168652811515820286019350611514565b6114ea856110d4565b60005b8381101561150c578154818901526001820191506020810190506114ed565b838801955050505b50505092915050565b6000611529828461149a565b915081905092915050565b7f55736572206e6f7420616c6c6f77656400000000000000000000000000000000600082015250565b600061156a601083610e22565b915061157582611534565b602082019050919050565b600060208201905081810360008301526115998161155d565b9050919050565b7f4e487b7100000000000000000000000000000000000000000000000000000000600052601260045260246000fd5b60006115da82610bec565b91506115e583610bec565b9250826115f5576115f46115a0565b5b828204905092915050565b600061160b82610bec565b915061161683610bec565b925082820190508082111561162e5761162d611352565b5b92915050565b7f556e646572203138000000000000000000000000000000000000000000000000600082015250565b600061166a600883610e22565b915061167582611634565b602082019050919050565b600060208201905081810360008301526116998161165d565b9050919050565b7f4e487b7100000000000000000000000000000000000000000000000000000000600052603260045260246000fdfea26469706673582212209c4b32d8ee660380c0f7b48aa065e7b76b3d25fb26cf43936b06c0f697323f9364736f6c63430008130033","opcodes":"PUSH1 0x80 PUSH1 0x40 MSTORE CALLVALUE DUP1 ISZERO PUSH2 0x10 JUMPI PUSH1 0x0 DUP1 REVERT JUMPDEST POP PUSH2 0x1705 DUP1 PUSH2 0x20 PUSH1 0x0 CODECOPY PUSH1 0x0 RETURN INVALID PUSH1 0x80 PUSH1 0x40 MSTORE CALLVALUE DUP1 ISZERO PUSH2 0x10 JUMPI PUSH1 0x0 DUP1 REVERT JUMPDEST POP PUSH1 0x4 CALLDATASIZE LT PUSH2 0x62 JUMPI PUSH1 0x0 CALLDATALOAD PUSH1 0xE0 SHR DUP1 PUSH4 0x147E6D9F EQ PUSH2 0x67 JUMPI DUP1 PUSH4 0x46EF80FC EQ PUSH2 0x97 JUMPI DUP1 PUSH4 0x4C93C11F EQ PUSH2 0xC7 JUMPI DUP1 PUSH4 0x98760665 EQ PUSH2 0xF7 JUMPI DUP1 PUSH4 0x9F4216E8 EQ PUSH2 0x12E JUMPI DUP1 PUSH4 0xB9209E33 EQ PUSH2 0x15E JUMPI JUMPDEST PUSH1 0x0 DUP1 REVERT JUMPDEST PUSH2 0x81 PUSH1 0x4 DUP1 CALLDATASIZE SUB DUP2 ADD SWAP1 PUSH2 0x7C SWAP2 SWAP1 PUSH2 0xC22 JUMP JUMPDEST PUSH2 0x18E JUMP JUMPDEST PUSH1 0x40 MLOAD PUSH2 0x8E SWAP2 SWAP1 PUSH2 0xD33 JUMP JUMPDEST PUSH1 0x40 MLOAD DUP1 SWAP2 SUB SWAP1 RETURN JUMPDEST PUSH2 0xB1 PUSH1 0x4 DUP1 CALLDATASIZE SUB DUP2 ADD SWAP1 PUSH2 0xAC SWAP2 SWAP1 PUSH2 0xD4E JUMP JUMPDEST PUSH2 0x4B2 JUMP JUMPDEST PUSH1 0x40 MLOAD PUSH2 0xBE SWAP2 SWAP1 PUSH2 0xD33 JUMP JUMPDEST PUSH1 0x40 MLOAD DUP1 SWAP2 SUB SWAP1 RETURN JUMPDEST PUSH2 0xE1 PUSH1 0x4 DUP1 CALLDATASIZE SUB DUP2 ADD SWAP1 PUSH2 0xDC SWAP2 SWAP1 PUSH2 0xDAA JUMP JUMPDEST PUSH2 0x59F JUMP JUMPDEST PUSH1 0x40 MLOAD PUSH2 0xEE SWAP2 SWAP1 PUSH2 0xD33 JUMP JUMPDEST PUSH1 0x40 MLOAD DUP1 SWAP2 SUB SWAP1 RETURN JUMPDEST PUSH2 0x111 PUSH1 0x4 DUP1 CALLDATASIZE SUB DUP2 ADD SWAP1 PUSH2 0x10C SWAP2 SWAP1 PUSH2 0xDEA JUMP JUMPDEST PUSH2 0x705 JUMP JUMPDEST PUSH1 0x40 MLOAD PUSH2 0x125 SWAP9 SWAP8 SWAP7 SWAP6 SWAP5 SWAP4 SWAP3 SWAP2 SWAP1 PUSH2 0xEF6 JUMP JUMPDEST PUSH1 0x40 MLOAD DUP1 SWAP2 SUB SWAP1 RETURN JUMPDEST PUSH2 0x148 PUSH1 0x4 DUP1 CALLDATASIZE SUB DUP2 ADD SWAP1 PUSH2 0x143 SWAP2 SWAP1 PUSH2 0xF8B JUMP JUMPDEST PUSH2 0x927 JUMP JUMPDEST PUSH1 0x40 MLOAD PUSH2 0x155 SWAP2 SWAP1 PUSH2 0xFC7 JUMP JUMPDEST PUSH1 0x40 MLOAD DUP1 SWAP2 SUB SWAP1 RETURN JUMPDEST PUSH2 0x178 PUSH1 0x4 DUP1 CALLDATASIZE SUB DUP2 ADD SWAP1 PUSH2 0x173 SWAP2 SWAP1 PUSH2 0xDEA JUMP JUMPDEST PUSH2 0x966 JUMP JUMPDEST PUSH1 0x40 MLOAD PUSH2 0x185 SWAP2 SWAP1 PUSH2 0xD33 JUMP JUMPDEST PUSH1 0x40 MLOAD DUP1 SWAP2 SUB SWAP1 RETURN JUMPDEST PUSH1 0x0 PUSH2 0x199 DUP9 PUSH2 0x966 JUMP JUMPDEST ISZERO PUSH2 0x1D9 JUMPI PUSH1 0x40 MLOAD PUSH32 0x8C379A000000000000000000000000000000000000000000000000000000000 DUP2 MSTORE PUSH1 0x4 ADD PUSH2 0x1D0 SWAP1 PUSH2 0x1054 JUMP JUMPDEST PUSH1 0x40 MLOAD DUP1 SWAP2 SUB SWAP1 REVERT JUMPDEST DUP7 PUSH1 0x1 PUSH1 0x0 DUP11 PUSH20 0xFFFFFFFFFFFFFFFFFFFFFFFFFFFFFFFFFFFFFFFF AND PUSH20 0xFFFFFFFFFFFFFFFFFFFFFFFFFFFFFFFFFFFFFFFF AND DUP2 MSTORE PUSH1 0x20 ADD SWAP1 DUP2 MSTORE PUSH1 0x20 ADD PUSH1 0x0 KECCAK256 PUSH1 0x0 ADD SWAP1 DUP2 PUSH2 0x228 SWAP2 SWAP1 PUSH2 0x1280 JUMP JUMPDEST POP DUP6 PUSH1 0x1 PUSH1 0x0 DUP11 PUSH20 0xFFFFFFFFFFFFFFFFFFFFFFFFFFFFFFFFFFFFFFFF AND PUSH20 0xFFFFFFFFFFFFFFFFFFFFFFFFFFFFFFFFFFFFFFFF AND DUP2 MSTORE PUSH1 0x20 ADD SWAP1 DUP2 MSTORE PUSH1 0x20 ADD PUSH1 0x0 KECCAK256 PUSH1 0x1 ADD SWAP1 DUP2 PUSH2 0x278 SWAP2 SWAP1 PUSH2 0x1280 JUMP JUMPDEST POP PUSH1 0x40 MLOAD DUP1 PUSH1 0x60 ADD PUSH1 0x40 MSTORE DUP1 DUP7 DUP2 MSTORE PUSH1 0x20 ADD DUP6 DUP2 MSTORE PUSH1 0x20 ADD DUP5 DUP2 MSTORE POP PUSH1 0x1 PUSH1 0x0 DUP11 PUSH20 0xFFFFFFFFFFFFFFFFFFFFFFFFFFFFFFFFFFFFFFFF AND PUSH20 0xFFFFFFFFFFFFFFFFFFFFFFFFFFFFFFFFFFFFFFFF AND DUP2 MSTORE PUSH1 0x20 ADD SWAP1 DUP2 MSTORE PUSH1 0x20 ADD PUSH1 0x0 KECCAK256 PUSH1 0x2 ADD PUSH1 0x0 DUP3 ADD MLOAD DUP2 PUSH1 0x0 ADD SSTORE PUSH1 0x20 DUP3 ADD MLOAD DUP2 PUSH1 0x1 ADD SSTORE PUSH1 0x40 DUP3 ADD MLOAD DUP2 PUSH1 0x2 ADD SSTORE SWAP1 POP POP DUP2 PUSH1 0x1 PUSH1 0x0 DUP11 PUSH20 0xFFFFFFFFFFFFFFFFFFFFFFFFFFFFFFFFFFFFFFFF AND PUSH20 0xFFFFFFFFFFFFFFFFFFFFFFFFFFFFFFFFFFFFFFFF AND DUP2 MSTORE PUSH1 0x20 ADD SWAP1 DUP2 MSTORE PUSH1 0x20 ADD PUSH1 0x0 KECCAK256 PUSH1 0x5 ADD SWAP1 DUP2 PUSH2 0x346 SWAP2 SWAP1 PUSH2 0x1280 JUMP JUMPDEST POP PUSH1 0x1 DUP1 PUSH1 0x0 DUP11 PUSH20 0xFFFFFFFFFFFFFFFFFFFFFFFFFFFFFFFFFFFFFFFF AND PUSH20 0xFFFFFFFFFFFFFFFFFFFFFFFFFFFFFFFFFFFFFFFF AND DUP2 MSTORE PUSH1 0x20 ADD SWAP1 DUP2 MSTORE PUSH1 0x20 ADD PUSH1 0x0 KECCAK256 PUSH1 0x6 ADD PUSH1 0x0 PUSH2 0x100 EXP DUP2 SLOAD DUP2 PUSH1 0xFF MUL NOT AND SWAP1 DUP4 ISZERO ISZERO MUL OR SWAP1 SSTORE POP PUSH1 0x0 DUP9 SWAP1 DUP1 PUSH1 0x1 DUP2 SLOAD ADD DUP1 DUP3 SSTORE DUP1 SWAP2 POP POP PUSH1 0x1 SWAP1 SUB SWAP1 PUSH1 0x0 MSTORE PUSH1 0x20 PUSH1 0x0 KECCAK256 ADD PUSH1 0x0 SWAP1 SWAP2 SWAP1 SWAP2 SWAP1 SWAP2 PUSH2 0x100 EXP DUP2 SLOAD DUP2 PUSH20 0xFFFFFFFFFFFFFFFFFFFFFFFFFFFFFFFFFFFFFFFF MUL NOT AND SWAP1 DUP4 PUSH20 0xFFFFFFFFFFFFFFFFFFFFFFFFFFFFFFFFFFFFFFFF AND MUL OR SWAP1 SSTORE POP PUSH1 0x1 PUSH1 0x0 DUP1 SLOAD SWAP1 POP PUSH2 0x416 SWAP2 SWAP1 PUSH2 0x1381 JUMP JUMPDEST PUSH1 0x1 PUSH1 0x0 DUP11 PUSH20 0xFFFFFFFFFFFFFFFFFFFFFFFFFFFFFFFFFFFFFFFF AND PUSH20 0xFFFFFFFFFFFFFFFFFFFFFFFFFFFFFFFFFFFFFFFF AND DUP2 MSTORE PUSH1 0x20 ADD SWAP1 DUP2 MSTORE PUSH1 0x20 ADD PUSH1 0x0 KECCAK256 PUSH1 0x8 ADD DUP2 SWAP1 SSTORE POP TIMESTAMP PUSH1 0x1 PUSH1 0x0 DUP11 PUSH20 0xFFFFFFFFFFFFFFFFFFFFFFFFFFFFFFFFFFFFFFFF AND PUSH20 0xFFFFFFFFFFFFFFFFFFFFFFFFFFFFFFFFFFFFFFFF AND DUP2 MSTORE PUSH1 0x20 ADD SWAP1 DUP2 MSTORE PUSH1 0x20 ADD PUSH1 0x0 KECCAK256 PUSH1 0x7 ADD DUP2 SWAP1 SSTORE POP PUSH1 0x1 SWAP1 POP SWAP8 SWAP7 POP POP POP POP POP POP POP JUMP JUMPDEST PUSH1 0x0 PUSH2 0x4BD DUP4 PUSH2 0x966 JUMP JUMPDEST PUSH2 0x4FC JUMPI PUSH1 0x40 MLOAD PUSH32 0x8C379A000000000000000000000000000000000000000000000000000000000 DUP2 MSTORE PUSH1 0x4 ADD PUSH2 0x4F3 SWAP1 PUSH2 0x1427 JUMP JUMPDEST PUSH1 0x40 MLOAD DUP1 SWAP2 SUB SWAP1 REVERT JUMPDEST DUP2 PUSH1 0x40 MLOAD PUSH1 0x20 ADD PUSH2 0x50D SWAP2 SWAP1 PUSH2 0x1483 JUMP JUMPDEST PUSH1 0x40 MLOAD PUSH1 0x20 DUP2 DUP4 SUB SUB DUP2 MSTORE SWAP1 PUSH1 0x40 MSTORE DUP1 MLOAD SWAP1 PUSH1 0x20 ADD KECCAK256 PUSH1 0x1 PUSH1 0x0 DUP6 PUSH20 0xFFFFFFFFFFFFFFFFFFFFFFFFFFFFFFFFFFFFFFFF AND PUSH20 0xFFFFFFFFFFFFFFFFFFFFFFFFFFFFFFFFFFFFFFFF AND DUP2 MSTORE PUSH1 0x20 ADD SWAP1 DUP2 MSTORE PUSH1 0x20 ADD PUSH1 0x0 KECCAK256 PUSH1 0x5 ADD PUSH1 0x40 MLOAD PUSH1 0x20 ADD PUSH2 0x575 SWAP2 SWAP1 PUSH2 0x151D JUMP JUMPDEST PUSH1 0x40 MLOAD PUSH1 0x20 DUP2 DUP4 SUB SUB DUP2 MSTORE SWAP1 PUSH1 0x40 MSTORE DUP1 MLOAD SWAP1 PUSH1 0x20 ADD KECCAK256 EQ PUSH2 0x595 JUMPI PUSH1 0x0 DUP1 REVERT JUMPDEST PUSH1 0x1 SWAP1 POP SWAP3 SWAP2 POP POP JUMP JUMPDEST PUSH1 0x0 PUSH2 0x5AA DUP4 PUSH2 0x966 JUMP JUMPDEST PUSH2 0x5E9 JUMPI PUSH1 0x40 MLOAD PUSH32 0x8C379A000000000000000000000000000000000000000000000000000000000 DUP2 MSTORE PUSH1 0x4 ADD PUSH2 0x5E0 SWAP1 PUSH2 0x1580 JUMP JUMPDEST PUSH1 0x40 MLOAD DUP1 SWAP2 SUB SWAP1 REVERT JUMPDEST PUSH1 0x0 PUSH2 0x7B2 PUSH4 0x1E187E0 TIMESTAMP PUSH2 0x5FE SWAP2 SWAP1 PUSH2 0x15CF JUMP JUMPDEST PUSH2 0x608 SWAP2 SWAP1 PUSH2 0x1600 JUMP JUMPDEST SWAP1 POP PUSH1 0x0 PUSH1 0x1 PUSH1 0x0 DUP7 PUSH20 0xFFFFFFFFFFFFFFFFFFFFFFFFFFFFFFFFFFFFFFFF AND PUSH20 0xFFFFFFFFFFFFFFFFFFFFFFFFFFFFFFFFFFFFFFFF AND DUP2 MSTORE PUSH1 0x20 ADD SWAP1 DUP2 MSTORE PUSH1 0x20 ADD PUSH1 0x0 KECCAK256 PUSH1 0x2 ADD PUSH1 0x0 ADD SLOAD DUP3 PUSH2 0x65D SWAP2 SWAP1 PUSH2 0x1381 JUMP JUMPDEST SWAP1 POP DUP4 DUP2 LT ISZERO PUSH2 0x6A2 JUMPI PUSH1 0x40 MLOAD PUSH32 0x8C379A000000000000000000000000000000000000000000000000000000000 DUP2 MSTORE PUSH1 0x4 ADD PUSH2 0x699 SWAP1 PUSH2 0x1680 JUMP JUMPDEST PUSH1 0x40 MLOAD DUP1 SWAP2 SUB SWAP1 REVERT JUMPDEST PUSH1 0x1 DUP1 PUSH1 0x0 DUP8 PUSH20 0xFFFFFFFFFFFFFFFFFFFFFFFFFFFFFFFFFFFFFFFF AND PUSH20 0xFFFFFFFFFFFFFFFFFFFFFFFFFFFFFFFFFFFFFFFF AND DUP2 MSTORE PUSH1 0x20 ADD SWAP1 DUP2 MSTORE PUSH1 0x20 ADD PUSH1 0x0 KECCAK256 PUSH1 0x9 ADD PUSH1 0x0 PUSH2 0x100 EXP DUP2 SLOAD DUP2 PUSH1 0xFF MUL NOT AND SWAP1 DUP4 ISZERO ISZERO MUL OR SWAP1 SSTORE SWAP3 POP POP POP SWAP3 SWAP2 POP POP JUMP JUMPDEST PUSH1 0x1 PUSH1 0x20 MSTORE DUP1 PUSH1 0x0 MSTORE PUSH1 0x40 PUSH1 0x0 KECCAK256 PUSH1 0x0 SWAP2 POP SWAP1 POP DUP1 PUSH1 0x0 ADD DUP1 SLOAD PUSH2 0x728 SWAP1 PUSH2 0x10A3 JUMP JUMPDEST DUP1 PUSH1 0x1F ADD PUSH1 0x20 DUP1 SWAP2 DIV MUL PUSH1 0x20 ADD PUSH1 0x40 MLOAD SWAP1 DUP2 ADD PUSH1 0x40 MSTORE DUP1 SWAP3 SWAP2 SWAP1 DUP2 DUP2 MSTORE PUSH1 0x20 ADD DUP3 DUP1 SLOAD PUSH2 0x754 SWAP1 PUSH2 0x10A3 JUMP JUMPDEST DUP1 ISZERO PUSH2 0x7A1 JUMPI DUP1 PUSH1 0x1F LT PUSH2 0x776 JUMPI PUSH2 0x100 DUP1 DUP4 SLOAD DIV MUL DUP4 MSTORE SWAP2 PUSH1 0x20 ADD SWAP2 PUSH2 0x7A1 JUMP JUMPDEST DUP3 ADD SWAP2 SWAP1 PUSH1 0x0 MSTORE PUSH1 0x20 PUSH1 0x0 KECCAK256 SWAP1 JUMPDEST DUP2 SLOAD DUP2 MSTORE SWAP1 PUSH1 0x1 ADD SWAP1 PUSH1 0x20 ADD DUP1 DUP4 GT PUSH2 0x784 JUMPI DUP3 SWAP1 SUB PUSH1 0x1F AND DUP3 ADD SWAP2 JUMPDEST POP POP POP POP POP SWAP1 DUP1 PUSH1 0x1 ADD DUP1 SLOAD PUSH2 0x7B6 SWAP1 PUSH2 0x10A3 JUMP JUMPDEST DUP1 PUSH1 0x1F ADD PUSH1 0x20 DUP1 SWAP2 DIV MUL PUSH1 0x20 ADD PUSH1 0x40 MLOAD SWAP1 DUP2 ADD PUSH1 0x40 MSTORE DUP1 SWAP3 SWAP2 SWAP1 DUP2 DUP2 MSTORE PUSH1 0x20 ADD DUP3 DUP1 SLOAD PUSH2 0x7E2 SWAP1 PUSH2 0x10A3 JUMP JUMPDEST DUP1 ISZERO PUSH2 0x82F JUMPI DUP1 PUSH1 0x1F LT PUSH2 0x804 JUMPI PUSH2 0x100 DUP1 DUP4 SLOAD DIV MUL DUP4 MSTORE SWAP2 PUSH1 0x20 ADD SWAP2 PUSH2 0x82F JUMP JUMPDEST DUP3 ADD SWAP2 SWAP1 PUSH1 0x0 MSTORE PUSH1 0x20 PUSH1 0x0 KECCAK256 SWAP1 JUMPDEST DUP2 SLOAD DUP2 MSTORE SWAP1 PUSH1 0x1 ADD SWAP1 PUSH1 0x20 ADD DUP1 DUP4 GT PUSH2 0x812 JUMPI DUP3 SWAP1 SUB PUSH1 0x1F AND DUP3 ADD SWAP2 JUMPDEST POP POP POP POP POP SWAP1 DUP1 PUSH1 0x2 ADD PUSH1 0x40 MLOAD DUP1 PUSH1 0x60 ADD PUSH1 0x40 MSTORE SWAP1 DUP2 PUSH1 0x0 DUP3 ADD SLOAD DUP2 MSTORE PUSH1 0x20 ADD PUSH1 0x1 DUP3 ADD SLOAD DUP2 MSTORE PUSH1 0x20 ADD PUSH1 0x2 DUP3 ADD SLOAD DUP2 MSTORE POP POP SWAP1 DUP1 PUSH1 0x5 ADD DUP1 SLOAD PUSH2 0x872 SWAP1 PUSH2 0x10A3 JUMP JUMPDEST DUP1 PUSH1 0x1F ADD PUSH1 0x20 DUP1 SWAP2 DIV MUL PUSH1 0x20 ADD PUSH1 0x40 MLOAD SWAP1 DUP2 ADD PUSH1 0x40 MSTORE DUP1 SWAP3 SWAP2 SWAP1 DUP2 DUP2 MSTORE PUSH1 0x20 ADD DUP3 DUP1 SLOAD PUSH2 0x89E SWAP1 PUSH2 0x10A3 JUMP JUMPDEST DUP1 ISZERO PUSH2 0x8EB JUMPI DUP1 PUSH1 0x1F LT PUSH2 0x8C0 JUMPI PUSH2 0x100 DUP1 DUP4 SLOAD DIV MUL DUP4 MSTORE SWAP2 PUSH1 0x20 ADD SWAP2 PUSH2 0x8EB JUMP JUMPDEST DUP3 ADD SWAP2 SWAP1 PUSH1 0x0 MSTORE PUSH1 0x20 PUSH1 0x0 KECCAK256 SWAP1 JUMPDEST DUP2 SLOAD DUP2 MSTORE SWAP1 PUSH1 0x1 ADD SWAP1 PUSH1 0x20 ADD DUP1 DUP4 GT PUSH2 0x8CE JUMPI DUP3 SWAP1 SUB PUSH1 0x1F AND DUP3 ADD SWAP2 JUMPDEST POP POP POP POP POP SWAP1 DUP1 PUSH1 0x6 ADD PUSH1 0x0 SWAP1 SLOAD SWAP1 PUSH2 0x100 EXP SWAP1 DIV PUSH1 0xFF AND SWAP1 DUP1 PUSH1 0x7 ADD SLOAD SWAP1 DUP1 PUSH1 0x8 ADD SLOAD SWAP1 DUP1 PUSH1 0x9 ADD PUSH1 0x0 SWAP1 SLOAD SWAP1 PUSH2 0x100 EXP SWAP1 DIV PUSH1 0xFF AND SWAP1 POP DUP9 JUMP JUMPDEST PUSH1 0x0 DUP2 DUP2 SLOAD DUP2 LT PUSH2 0x937 JUMPI PUSH1 0x0 DUP1 REVERT JUMPDEST SWAP1 PUSH1 0x0 MSTORE PUSH1 0x20 PUSH1 0x0 KECCAK256 ADD PUSH1 0x0 SWAP2 POP SLOAD SWAP1 PUSH2 0x100 EXP SWAP1 DIV PUSH20 0xFFFFFFFFFFFFFFFFFFFFFFFFFFFFFFFFFFFFFFFF AND DUP2 JUMP JUMPDEST PUSH1 0x0 DUP1 PUSH1 0x0 DUP1 SLOAD SWAP1 POP SUB PUSH2 0x97D JUMPI PUSH1 0x0 SWAP1 POP PUSH2 0xA2F JUMP JUMPDEST DUP2 PUSH20 0xFFFFFFFFFFFFFFFFFFFFFFFFFFFFFFFFFFFFFFFF AND PUSH1 0x0 PUSH1 0x1 PUSH1 0x0 DUP6 PUSH20 0xFFFFFFFFFFFFFFFFFFFFFFFFFFFFFFFFFFFFFFFF AND PUSH20 0xFFFFFFFFFFFFFFFFFFFFFFFFFFFFFFFFFFFFFFFF AND DUP2 MSTORE PUSH1 0x20 ADD SWAP1 DUP2 MSTORE PUSH1 0x20 ADD PUSH1 0x0 KECCAK256 PUSH1 0x8 ADD SLOAD DUP2 SLOAD DUP2 LT PUSH2 0x9EA JUMPI PUSH2 0x9E9 PUSH2 0x16A0 JUMP JUMPDEST JUMPDEST SWAP1 PUSH1 0x0 MSTORE PUSH1 0x20 PUSH1 0x0 KECCAK256 ADD PUSH1 0x0 SWAP1 SLOAD SWAP1 PUSH2 0x100 EXP SWAP1 DIV PUSH20 0xFFFFFFFFFFFFFFFFFFFFFFFFFFFFFFFFFFFFFFFF AND PUSH20 0xFFFFFFFFFFFFFFFFFFFFFFFFFFFFFFFFFFFFFFFF AND EQ SWAP1 POP JUMPDEST SWAP2 SWAP1 POP JUMP JUMPDEST PUSH1 0x0 PUSH1 0x40 MLOAD SWAP1 POP SWAP1 JUMP JUMPDEST PUSH1 0x0 DUP1 REVERT JUMPDEST PUSH1 0x0 DUP1 REVERT JUMPDEST PUSH1 0x0 PUSH20 0xFFFFFFFFFFFFFFFFFFFFFFFFFFFFFFFFFFFFFFFF DUP3 AND SWAP1 POP SWAP2 SWAP1 POP JUMP JUMPDEST PUSH1 0x0 PUSH2 0xA73 DUP3 PUSH2 0xA48 JUMP JUMPDEST SWAP1 POP SWAP2 SWAP1 POP JUMP JUMPDEST PUSH2 0xA83 DUP2 PUSH2 0xA68 JUMP JUMPDEST DUP2 EQ PUSH2 0xA8E JUMPI PUSH1 0x0 DUP1 REVERT JUMPDEST POP JUMP JUMPDEST PUSH1 0x0 DUP2 CALLDATALOAD SWAP1 POP PUSH2 0xAA0 DUP2 PUSH2 0xA7A JUMP JUMPDEST SWAP3 SWAP2 POP POP JUMP JUMPDEST PUSH1 0x0 DUP1 REVERT JUMPDEST PUSH1 0x0 DUP1 REVERT JUMPDEST PUSH1 0x0 PUSH1 0x1F NOT PUSH1 0x1F DUP4 ADD AND SWAP1 POP SWAP2 SWAP1 POP JUMP JUMPDEST PUSH32 0x4E487B7100000000000000000000000000000000000000000000000000000000 PUSH1 0x0 MSTORE PUSH1 0x41 PUSH1 0x4 MSTORE PUSH1 0x24 PUSH1 0x0 REVERT JUMPDEST PUSH2 0xAF9 DUP3 PUSH2 0xAB0 JUMP JUMPDEST DUP2 ADD DUP2 DUP2 LT PUSH8 0xFFFFFFFFFFFFFFFF DUP3 GT OR ISZERO PUSH2 0xB18 JUMPI PUSH2 0xB17 PUSH2 0xAC1 JUMP JUMPDEST JUMPDEST DUP1 PUSH1 0x40 MSTORE POP POP POP JUMP JUMPDEST PUSH1 0x0 PUSH2 0xB2B PUSH2 0xA34 JUMP JUMPDEST SWAP1 POP PUSH2 0xB37 DUP3 DUP3 PUSH2 0xAF0 JUMP JUMPDEST SWAP2 SWAP1 POP JUMP JUMPDEST PUSH1 0x0 PUSH8 0xFFFFFFFFFFFFFFFF DUP3 GT ISZERO PUSH2 0xB57 JUMPI PUSH2 0xB56 PUSH2 0xAC1 JUMP JUMPDEST JUMPDEST PUSH2 0xB60 DUP3 PUSH2 0xAB0 JUMP JUMPDEST SWAP1 POP PUSH1 0x20 DUP2 ADD SWAP1 POP SWAP2 SWAP1 POP JUMP JUMPDEST DUP3 DUP2 DUP4 CALLDATACOPY PUSH1 0x0 DUP4 DUP4 ADD MSTORE POP POP POP JUMP JUMPDEST PUSH1 0x0 PUSH2 0xB8F PUSH2 0xB8A DUP5 PUSH2 0xB3C JUMP JUMPDEST PUSH2 0xB21 JUMP JUMPDEST SWAP1 POP DUP3 DUP2 MSTORE PUSH1 0x20 DUP2 ADD DUP5 DUP5 DUP5 ADD GT ISZERO PUSH2 0xBAB JUMPI PUSH2 0xBAA PUSH2 0xAAB JUMP JUMPDEST JUMPDEST PUSH2 0xBB6 DUP5 DUP3 DUP6 PUSH2 0xB6D JUMP JUMPDEST POP SWAP4 SWAP3 POP POP POP JUMP JUMPDEST PUSH1 0x0 DUP3 PUSH1 0x1F DUP4 ADD SLT PUSH2 0xBD3 JUMPI PUSH2 0xBD2 PUSH2 0xAA6 JUMP JUMPDEST JUMPDEST DUP2 CALLDATALOAD PUSH2 0xBE3 DUP5 DUP3 PUSH1 0x20 DUP7 ADD PUSH2 0xB7C JUMP JUMPDEST SWAP2 POP POP SWAP3 SWAP2 POP POP JUMP JUMPDEST PUSH1 0x0 DUP2 SWAP1 POP SWAP2 SWAP1 POP JUMP JUMPDEST PUSH2 0xBFF DUP2 PUSH2 0xBEC JUMP JUMPDEST DUP2 EQ PUSH2 0xC0A JUMPI PUSH1 0x0 DUP1 REVERT JUMPDEST POP JUMP JUMPDEST PUSH1 0x0 DUP2 CALLDATALOAD SWAP1 POP PUSH2 0xC1C DUP2 PUSH2 0xBF6 JUMP JUMPDEST SWAP3 SWAP2 POP POP JUMP JUMPDEST PUSH1 0x0 DUP1 PUSH1 0x0 DUP1 PUSH1 0x0 DUP1 PUSH1 0x0 PUSH1 0xE0 DUP9 DUP11 SUB SLT ISZERO PUSH2 0xC41 JUMPI PUSH2 0xC40 PUSH2 0xA3E JUMP JUMPDEST JUMPDEST PUSH1 0x0 PUSH2 0xC4F DUP11 DUP3 DUP12 ADD PUSH2 0xA91 JUMP JUMPDEST SWAP8 POP POP PUSH1 0x20 DUP9 ADD CALLDATALOAD PUSH8 0xFFFFFFFFFFFFFFFF DUP2 GT ISZERO PUSH2 0xC70 JUMPI PUSH2 0xC6F PUSH2 0xA43 JUMP JUMPDEST JUMPDEST PUSH2 0xC7C DUP11 DUP3 DUP12 ADD PUSH2 0xBBE JUMP JUMPDEST SWAP7 POP POP PUSH1 0x40 DUP9 ADD CALLDATALOAD PUSH8 0xFFFFFFFFFFFFFFFF DUP2 GT ISZERO PUSH2 0xC9D JUMPI PUSH2 0xC9C PUSH2 0xA43 JUMP JUMPDEST JUMPDEST PUSH2 0xCA9 DUP11 DUP3 DUP12 ADD PUSH2 0xBBE JUMP JUMPDEST SWAP6 POP POP PUSH1 0x60 PUSH2 0xCBA DUP11 DUP3 DUP12 ADD PUSH2 0xC0D JUMP JUMPDEST SWAP5 POP POP PUSH1 0x80 PUSH2 0xCCB DUP11 DUP3 DUP12 ADD PUSH2 0xC0D JUMP JUMPDEST SWAP4 POP POP PUSH1 0xA0 PUSH2 0xCDC DUP11 DUP3 DUP12 ADD PUSH2 0xC0D JUMP JUMPDEST SWAP3 POP POP PUSH1 0xC0 DUP9 ADD CALLDATALOAD PUSH8 0xFFFFFFFFFFFFFFFF DUP2 GT ISZERO PUSH2 0xCFD JUMPI PUSH2 0xCFC PUSH2 0xA43 JUMP JUMPDEST JUMPDEST PUSH2 0xD09 DUP11 DUP3 DUP12 ADD PUSH2 0xBBE JUMP JUMPDEST SWAP2 POP POP SWAP3 SWAP6 SWAP9 SWAP2 SWAP5 SWAP8 POP SWAP3 SWAP6 POP JUMP JUMPDEST PUSH1 0x0 DUP2 ISZERO ISZERO SWAP1 POP SWAP2 SWAP1 POP JUMP JUMPDEST PUSH2 0xD2D DUP2 PUSH2 0xD18 JUMP JUMPDEST DUP3 MSTORE POP POP JUMP JUMPDEST PUSH1 0x0 PUSH1 0x20 DUP3 ADD SWAP1 POP PUSH2 0xD48 PUSH1 0x0 DUP4 ADD DUP5 PUSH2 0xD24 JUMP JUMPDEST SWAP3 SWAP2 POP POP JUMP JUMPDEST PUSH1 0x0 DUP1 PUSH1 0x40 DUP4 DUP6 SUB SLT ISZERO PUSH2 0xD65 JUMPI PUSH2 0xD64 PUSH2 0xA3E JUMP JUMPDEST JUMPDEST PUSH1 0x0 PUSH2 0xD73 DUP6 DUP3 DUP7 ADD PUSH2 0xA91 JUMP JUMPDEST SWAP3 POP POP PUSH1 0x20 DUP4 ADD CALLDATALOAD PUSH8 0xFFFFFFFFFFFFFFFF DUP2 GT ISZERO PUSH2 0xD94 JUMPI PUSH2 0xD93 PUSH2 0xA43 JUMP JUMPDEST JUMPDEST PUSH2 0xDA0 DUP6 DUP3 DUP7 ADD PUSH2 0xBBE JUMP JUMPDEST SWAP2 POP POP SWAP3 POP SWAP3 SWAP1 POP JUMP JUMPDEST PUSH1 0x0 DUP1 PUSH1 0x40 DUP4 DUP6 SUB SLT ISZERO PUSH2 0xDC1 JUMPI PUSH2 0xDC0 PUSH2 0xA3E JUMP JUMPDEST JUMPDEST PUSH1 0x0 PUSH2 0xDCF DUP6 DUP3 DUP7 ADD PUSH2 0xA91 JUMP JUMPDEST SWAP3 POP POP PUSH1 0x20 PUSH2 0xDE0 DUP6 DUP3 DUP7 ADD PUSH2 0xC0D JUMP JUMPDEST SWAP2 POP POP SWAP3 POP SWAP3 SWAP1 POP JUMP JUMPDEST PUSH1 0x0 PUSH1 0x20 DUP3 DUP5 SUB SLT ISZERO PUSH2 0xE00 JUMPI PUSH2 0xDFF PUSH2 0xA3E JUMP JUMPDEST JUMPDEST PUSH1 0x0 PUSH2 0xE0E DUP5 DUP3 DUP6 ADD PUSH2 0xA91 JUMP JUMPDEST SWAP2 POP POP SWAP3 SWAP2 POP POP JUMP JUMPDEST PUSH1 0x0 DUP2 MLOAD SWAP1 POP SWAP2 SWAP1 POP JUMP JUMPDEST PUSH1 0x0 DUP3 DUP3 MSTORE PUSH1 0x20 DUP3 ADD SWAP1 POP SWAP3 SWAP2 POP POP JUMP JUMPDEST PUSH1 0x0 JUMPDEST DUP4 DUP2 LT ISZERO PUSH2 0xE51 JUMPI DUP1 DUP3 ADD MLOAD DUP2 DUP5 ADD MSTORE PUSH1 0x20 DUP2 ADD SWAP1 POP PUSH2 0xE36 JUMP JUMPDEST PUSH1 0x0 DUP5 DUP5 ADD MSTORE POP POP POP POP JUMP JUMPDEST PUSH1 0x0 PUSH2 0xE68 DUP3 PUSH2 0xE17 JUMP JUMPDEST PUSH2 0xE72 DUP2 DUP6 PUSH2 0xE22 JUMP JUMPDEST SWAP4 POP PUSH2 0xE82 DUP2 DUP6 PUSH1 0x20 DUP7 ADD PUSH2 0xE33 JUMP JUMPDEST PUSH2 0xE8B DUP2 PUSH2 0xAB0 JUMP JUMPDEST DUP5 ADD SWAP2 POP POP SWAP3 SWAP2 POP POP JUMP JUMPDEST PUSH2 0xE9F DUP2 PUSH2 0xBEC JUMP JUMPDEST DUP3 MSTORE POP POP JUMP JUMPDEST PUSH1 0x60 DUP3 ADD PUSH1 0x0 DUP3 ADD MLOAD PUSH2 0xEBB PUSH1 0x0 DUP6 ADD DUP3 PUSH2 0xE96 JUMP JUMPDEST POP PUSH1 0x20 DUP3 ADD MLOAD PUSH2 0xECE PUSH1 0x20 DUP6 ADD DUP3 PUSH2 0xE96 JUMP JUMPDEST POP PUSH1 0x40 DUP3 ADD MLOAD PUSH2 0xEE1 PUSH1 0x40 DUP6 ADD DUP3 PUSH2 0xE96 JUMP JUMPDEST POP POP POP POP JUMP JUMPDEST PUSH2 0xEF0 DUP2 PUSH2 0xBEC JUMP JUMPDEST DUP3 MSTORE POP POP JUMP JUMPDEST PUSH1 0x0 PUSH2 0x140 DUP3 ADD SWAP1 POP DUP2 DUP2 SUB PUSH1 0x0 DUP4 ADD MSTORE PUSH2 0xF11 DUP2 DUP12 PUSH2 0xE5D JUMP JUMPDEST SWAP1 POP DUP2 DUP2 SUB PUSH1 0x20 DUP4 ADD MSTORE PUSH2 0xF25 DUP2 DUP11 PUSH2 0xE5D JUMP JUMPDEST SWAP1 POP PUSH2 0xF34 PUSH1 0x40 DUP4 ADD DUP10 PUSH2 0xEA5 JUMP JUMPDEST DUP2 DUP2 SUB PUSH1 0xA0 DUP4 ADD MSTORE PUSH2 0xF46 DUP2 DUP9 PUSH2 0xE5D JUMP JUMPDEST SWAP1 POP PUSH2 0xF55 PUSH1 0xC0 DUP4 ADD DUP8 PUSH2 0xD24 JUMP JUMPDEST PUSH2 0xF62 PUSH1 0xE0 DUP4 ADD DUP7 PUSH2 0xEE7 JUMP JUMPDEST PUSH2 0xF70 PUSH2 0x100 DUP4 ADD DUP6 PUSH2 0xEE7 JUMP JUMPDEST PUSH2 0xF7E PUSH2 0x120 DUP4 ADD DUP5 PUSH2 0xD24 JUMP JUMPDEST SWAP10 SWAP9 POP POP POP POP POP POP POP POP POP JUMP JUMPDEST PUSH1 0x0 PUSH1 0x20 DUP3 DUP5 SUB SLT ISZERO PUSH2 0xFA1 JUMPI PUSH2 0xFA0 PUSH2 0xA3E JUMP JUMPDEST JUMPDEST PUSH1 0x0 PUSH2 0xFAF DUP5 DUP3 DUP6 ADD PUSH2 0xC0D JUMP JUMPDEST SWAP2 POP POP SWAP3 SWAP2 POP POP JUMP JUMPDEST PUSH2 0xFC1 DUP2 PUSH2 0xA68 JUMP JUMPDEST DUP3 MSTORE POP POP JUMP JUMPDEST PUSH1 0x0 PUSH1 0x20 DUP3 ADD SWAP1 POP PUSH2 0xFDC PUSH1 0x0 DUP4 ADD DUP5 PUSH2 0xFB8 JUMP JUMPDEST SWAP3 SWAP2 POP POP JUMP JUMPDEST PUSH32 0x5573657220616C72656164792065786973747320616E64206973207665726966 PUSH1 0x0 DUP3 ADD MSTORE PUSH32 0x6965640000000000000000000000000000000000000000000000000000000000 PUSH1 0x20 DUP3 ADD MSTORE POP JUMP JUMPDEST PUSH1 0x0 PUSH2 0x103E PUSH1 0x23 DUP4 PUSH2 0xE22 JUMP JUMPDEST SWAP2 POP PUSH2 0x1049 DUP3 PUSH2 0xFE2 JUMP JUMPDEST PUSH1 0x40 DUP3 ADD SWAP1 POP SWAP2 SWAP1 POP JUMP JUMPDEST PUSH1 0x0 PUSH1 0x20 DUP3 ADD SWAP1 POP DUP2 DUP2 SUB PUSH1 0x0 DUP4 ADD MSTORE PUSH2 0x106D DUP2 PUSH2 0x1031 JUMP JUMPDEST SWAP1 POP SWAP2 SWAP1 POP JUMP JUMPDEST PUSH32 0x4E487B7100000000000000000000000000000000000000000000000000000000 PUSH1 0x0 MSTORE PUSH1 0x22 PUSH1 0x4 MSTORE PUSH1 0x24 PUSH1 0x0 REVERT JUMPDEST PUSH1 0x0 PUSH1 0x2 DUP3 DIV SWAP1 POP PUSH1 0x1 DUP3 AND DUP1 PUSH2 0x10BB JUMPI PUSH1 0x7F DUP3 AND SWAP2 POP JUMPDEST PUSH1 0x20 DUP3 LT DUP2 SUB PUSH2 0x10CE JUMPI PUSH2 0x10CD PUSH2 0x1074 JUMP JUMPDEST JUMPDEST POP SWAP2 SWAP1 POP JUMP JUMPDEST PUSH1 0x0 DUP2 SWAP1 POP DUP2 PUSH1 0x0 MSTORE PUSH1 0x20 PUSH1 0x0 KECCAK256 SWAP1 POP SWAP2 SWAP1 POP JUMP JUMPDEST PUSH1 0x0 PUSH1 0x20 PUSH1 0x1F DUP4 ADD DIV SWAP1 POP SWAP2 SWAP1 POP JUMP JUMPDEST PUSH1 0x0 DUP3 DUP3 SHL SWAP1 POP SWAP3 SWAP2 POP POP JUMP JUMPDEST PUSH1 0x0 PUSH1 0x8 DUP4 MUL PUSH2 0x1136 PUSH32 0xFFFFFFFFFFFFFFFFFFFFFFFFFFFFFFFFFFFFFFFFFFFFFFFFFFFFFFFFFFFFFFFF DUP3 PUSH2 0x10F9 JUMP JUMPDEST PUSH2 0x1140 DUP7 DUP4 PUSH2 0x10F9 JUMP JUMPDEST SWAP6 POP DUP1 NOT DUP5 AND SWAP4 POP DUP1 DUP7 AND DUP5 OR SWAP3 POP POP POP SWAP4 SWAP3 POP POP POP JUMP JUMPDEST PUSH1 0x0 DUP2 SWAP1 POP SWAP2 SWAP1 POP JUMP JUMPDEST PUSH1 0x0 PUSH2 0x117D PUSH2 0x1178 PUSH2 0x1173 DUP5 PUSH2 0xBEC JUMP JUMPDEST PUSH2 0x1158 JUMP JUMPDEST PUSH2 0xBEC JUMP JUMPDEST SWAP1 POP SWAP2 SWAP1 POP JUMP JUMPDEST PUSH1 0x0 DUP2 SWAP1 POP SWAP2 SWAP1 POP JUMP JUMPDEST PUSH2 0x1197 DUP4 PUSH2 0x1162 JUMP JUMPDEST PUSH2 0x11AB PUSH2 0x11A3 DUP3 PUSH2 0x1184 JUMP JUMPDEST DUP5 DUP5 SLOAD PUSH2 0x1106 JUMP JUMPDEST DUP3 SSTORE POP POP POP POP JUMP JUMPDEST PUSH1 0x0 SWAP1 JUMP JUMPDEST PUSH2 0x11C0 PUSH2 0x11B3 JUMP JUMPDEST PUSH2 0x11CB DUP2 DUP5 DUP5 PUSH2 0x118E JUMP JUMPDEST POP POP POP JUMP JUMPDEST JUMPDEST DUP2 DUP2 LT ISZERO PUSH2 0x11EF JUMPI PUSH2 0x11E4 PUSH1 0x0 DUP3 PUSH2 0x11B8 JUMP JUMPDEST PUSH1 0x1 DUP2 ADD SWAP1 POP PUSH2 0x11D1 JUMP JUMPDEST POP POP JUMP JUMPDEST PUSH1 0x1F DUP3 GT ISZERO PUSH2 0x1234 JUMPI PUSH2 0x1205 DUP2 PUSH2 0x10D4 JUMP JUMPDEST PUSH2 0x120E DUP5 PUSH2 0x10E9 JUMP JUMPDEST DUP2 ADD PUSH1 0x20 DUP6 LT ISZERO PUSH2 0x121D JUMPI DUP2 SWAP1 POP JUMPDEST PUSH2 0x1231 PUSH2 0x1229 DUP6 PUSH2 0x10E9 JUMP JUMPDEST DUP4 ADD DUP3 PUSH2 0x11D0 JUMP JUMPDEST POP POP JUMPDEST POP POP POP JUMP JUMPDEST PUSH1 0x0 DUP3 DUP3 SHR SWAP1 POP SWAP3 SWAP2 POP POP JUMP JUMPDEST PUSH1 0x0 PUSH2 0x1257 PUSH1 0x0 NOT DUP5 PUSH1 0x8 MUL PUSH2 0x1239 JUMP JUMPDEST NOT DUP1 DUP4 AND SWAP2 POP POP SWAP3 SWAP2 POP POP JUMP JUMPDEST PUSH1 0x0 PUSH2 0x1270 DUP4 DUP4 PUSH2 0x1246 JUMP JUMPDEST SWAP2 POP DUP3 PUSH1 0x2 MUL DUP3 OR SWAP1 POP SWAP3 SWAP2 POP POP JUMP JUMPDEST PUSH2 0x1289 DUP3 PUSH2 0xE17 JUMP JUMPDEST PUSH8 0xFFFFFFFFFFFFFFFF DUP2 GT ISZERO PUSH2 0x12A2 JUMPI PUSH2 0x12A1 PUSH2 0xAC1 JUMP JUMPDEST JUMPDEST PUSH2 0x12AC DUP3 SLOAD PUSH2 0x10A3 JUMP JUMPDEST PUSH2 0x12B7 DUP3 DUP3 DUP6 PUSH2 0x11F3 JUMP JUMPDEST PUSH1 0x0 PUSH1 0x20 SWAP1 POP PUSH1 0x1F DUP4 GT PUSH1 0x1 DUP2 EQ PUSH2 0x12EA JUMPI PUSH1 0x0 DUP5 ISZERO PUSH2 0x12D8 JUMPI DUP3 DUP8 ADD MLOAD SWAP1 POP JUMPDEST PUSH2 0x12E2 DUP6 DUP3 PUSH2 0x1264 JUMP JUMPDEST DUP7 SSTORE POP PUSH2 0x134A JUMP JUMPDEST PUSH1 0x1F NOT DUP5 AND PUSH2 0x12F8 DUP7 PUSH2 0x10D4 JUMP JUMPDEST PUSH1 0x0 JUMPDEST DUP3 DUP2 LT ISZERO PUSH2 0x1320 JUMPI DUP5 DUP10 ADD MLOAD DUP3 SSTORE PUSH1 0x1 DUP3 ADD SWAP2 POP PUSH1 0x20 DUP6 ADD SWAP5 POP PUSH1 0x20 DUP2 ADD SWAP1 POP PUSH2 0x12FB JUMP JUMPDEST DUP7 DUP4 LT ISZERO PUSH2 0x133D JUMPI DUP5 DUP10 ADD MLOAD PUSH2 0x1339 PUSH1 0x1F DUP10 AND DUP3 PUSH2 0x1246 JUMP JUMPDEST DUP4 SSTORE POP JUMPDEST PUSH1 0x1 PUSH1 0x2 DUP9 MUL ADD DUP9 SSTORE POP POP POP JUMPDEST POP POP POP POP POP POP JUMP JUMPDEST PUSH32 0x4E487B7100000000000000000000000000000000000000000000000000000000 PUSH1 0x0 MSTORE PUSH1 0x11 PUSH1 0x4 MSTORE PUSH1 0x24 PUSH1 0x0 REVERT JUMPDEST PUSH1 0x0 PUSH2 0x138C DUP3 PUSH2 0xBEC JUMP JUMPDEST SWAP2 POP PUSH2 0x1397 DUP4 PUSH2 0xBEC JUMP JUMPDEST SWAP3 POP DUP3 DUP3 SUB SWAP1 POP DUP2 DUP2 GT ISZERO PUSH2 0x13AF JUMPI PUSH2 0x13AE PUSH2 0x1352 JUMP JUMPDEST JUMPDEST SWAP3 SWAP2 POP POP JUMP JUMPDEST PUSH32 0x5573657220646F6573206E6F74206578697374206F72206973206E6F74207665 PUSH1 0x0 DUP3 ADD MSTORE PUSH32 0x7269666965640000000000000000000000000000000000000000000000000000 PUSH1 0x20 DUP3 ADD MSTORE POP JUMP JUMPDEST PUSH1 0x0 PUSH2 0x1411 PUSH1 0x26 DUP4 PUSH2 0xE22 JUMP JUMPDEST SWAP2 POP PUSH2 0x141C DUP3 PUSH2 0x13B5 JUMP JUMPDEST PUSH1 0x40 DUP3 ADD SWAP1 POP SWAP2 SWAP1 POP JUMP JUMPDEST PUSH1 0x0 PUSH1 0x20 DUP3 ADD SWAP1 POP DUP2 DUP2 SUB PUSH1 0x0 DUP4 ADD MSTORE PUSH2 0x1440 DUP2 PUSH2 0x1404 JUMP JUMPDEST SWAP1 POP SWAP2 SWAP1 POP JUMP JUMPDEST PUSH1 0x0 DUP2 SWAP1 POP SWAP3 SWAP2 POP POP JUMP JUMPDEST PUSH1 0x0 PUSH2 0x145D DUP3 PUSH2 0xE17 JUMP JUMPDEST PUSH2 0x1467 DUP2 DUP6 PUSH2 0x1447 JUMP JUMPDEST SWAP4 POP PUSH2 0x1477 DUP2 DUP6 PUSH1 0x20 DUP7 ADD PUSH2 0xE33 JUMP JUMPDEST DUP1 DUP5 ADD SWAP2 POP POP SWAP3 SWAP2 POP POP JUMP JUMPDEST PUSH1 0x0 PUSH2 0x148F DUP3 DUP5 PUSH2 0x1452 JUMP JUMPDEST SWAP2 POP DUP2 SWAP1 POP SWAP3 SWAP2 POP POP JUMP JUMPDEST PUSH1 0x0 DUP2 SLOAD PUSH2 0x14A7 DUP2 PUSH2 0x10A3 JUMP JUMPDEST PUSH2 0x14B1 DUP2 DUP7 PUSH2 0x1447 JUMP JUMPDEST SWAP5 POP PUSH1 0x1 DUP3 AND PUSH1 0x0 DUP2 EQ PUSH2 0x14CC JUMPI PUSH1 0x1 DUP2 EQ PUSH2 0x14E1 JUMPI PUSH2 0x1514 JUMP JUMPDEST PUSH1 0xFF NOT DUP4 AND DUP7 MSTORE DUP2 ISZERO ISZERO DUP3 MUL DUP7 ADD SWAP4 POP PUSH2 0x1514 JUMP JUMPDEST PUSH2 0x14EA DUP6 PUSH2 0x10D4 JUMP JUMPDEST PUSH1 0x0 JUMPDEST DUP4 DUP2 LT ISZERO PUSH2 0x150C JUMPI DUP2 SLOAD DUP2 DUP10 ADD MSTORE PUSH1 0x1 DUP3 ADD SWAP2 POP PUSH1 0x20 DUP2 ADD SWAP1 POP PUSH2 0x14ED JUMP JUMPDEST DUP4 DUP9 ADD SWAP6 POP POP POP JUMPDEST POP POP POP SWAP3 SWAP2 POP POP JUMP JUMPDEST PUSH1 0x0 PUSH2 0x1529 DUP3 DUP5 PUSH2 0x149A JUMP JUMPDEST SWAP2 POP DUP2 SWAP1 POP SWAP3 SWAP2 POP POP JUMP JUMPDEST PUSH32 0x55736572206E6F7420616C6C6F77656400000000000000000000000000000000 PUSH1 0x0 DUP3 ADD MSTORE POP JUMP JUMPDEST PUSH1 0x0 PUSH2 0x156A PUSH1 0x10 DUP4 PUSH2 0xE22 JUMP JUMPDEST SWAP2 POP PUSH2 0x1575 DUP3 PUSH2 0x1534 JUMP JUMPDEST PUSH1 0x20 DUP3 ADD SWAP1 POP SWAP2 SWAP1 POP JUMP JUMPDEST PUSH1 0x0 PUSH1 0x20 DUP3 ADD SWAP1 POP DUP2 DUP2 SUB PUSH1 0x0 DUP4 ADD MSTORE PUSH2 0x1599 DUP2 PUSH2 0x155D JUMP JUMPDEST SWAP1 POP SWAP2 SWAP1 POP JUMP JUMPDEST PUSH32 0x4E487B7100000000000000000000000000000000000000000000000000000000 PUSH1 0x0 MSTORE PUSH1 0x12 PUSH1 0x4 MSTORE PUSH1 0x24 PUSH1 0x0 REVERT JUMPDEST PUSH1 0x0 PUSH2 0x15DA DUP3 PUSH2 0xBEC JUMP JUMPDEST SWAP2 POP PUSH2 0x15E5 DUP4 PUSH2 0xBEC JUMP JUMPDEST SWAP3 POP DUP3 PUSH2 0x15F5 JUMPI PUSH2 0x15F4 PUSH2 0x15A0 JUMP JUMPDEST JUMPDEST DUP3 DUP3 DIV SWAP1 POP SWAP3 SWAP2 POP POP JUMP JUMPDEST PUSH1 0x0 PUSH2 0x160B DUP3 PUSH2 0xBEC JUMP JUMPDEST SWAP2 POP PUSH2 0x1616 DUP4 PUSH2 0xBEC JUMP JUMPDEST SWAP3 POP DUP3 DUP3 ADD SWAP1 POP DUP1 DUP3 GT ISZERO PUSH2 0x162E JUMPI PUSH2 0x162D PUSH2 0x1352 JUMP JUMPDEST JUMPDEST SWAP3 SWAP2 POP POP JUMP JUMPDEST PUSH32 0x556E646572203138000000000000000000000000000000000000000000000000 PUSH1 0x0 DUP3 ADD MSTORE POP JUMP JUMPDEST PUSH1 0x0 PUSH2 0x166A PUSH1 0x8 DUP4 PUSH2 0xE22 JUMP JUMPDEST SWAP2 POP PUSH2 0x1675 DUP3 PUSH2 0x1634 JUMP JUMPDEST PUSH1 0x20 DUP3 ADD SWAP1 POP SWAP2 SWAP1 POP JUMP JUMPDEST PUSH1 0x0 PUSH1 0x20 DUP3 ADD SWAP1 POP DUP2 DUP2 SUB PUSH1 0x0 DUP4 ADD MSTORE PUSH2 0x1699 DUP2 PUSH2 0x165D JUMP JUMPDEST SWAP1 POP SWAP2 SWAP1 POP JUMP JUMPDEST PUSH32 0x4E487B7100000000000000000000000000000000000000000000000000000000 PUSH1 0x0 MSTORE PUSH1 0x32 PUSH1 0x4 MSTORE PUSH1 0x24 PUSH1 0x0 REVERT INVALID LOG2 PUSH5 0x6970667358 0x22 SLT KECCAK256 SWAP13 0x4B ORIGIN 0xD8 0xEE PUSH7 0x380C0F7B48AA0 PUSH6 0xE7B76B3D25FB 0x26 0xCF NUMBER SWAP4 PUSH12 0x6C0F697323F9364736F6C63 NUMBER STOP ADDMOD SGT STOP CALLER "},"methodIdentifiers":{"UserStruct(address)":"98760665","createUserId(address,string,string,uint256,uint256,uint256,string)":"147e6d9f","isVerified(address)":"b9209e33","locationVerified(address,string)":"46ef80fc","userList(uint256)":"9f4216e8","verifyAgeLimit(address,uint256)":"4c93c11f"}}}}}