{
  "_format": "hh-sol-artifact-1",
  "contractName": "UserId",
  "sourceName": "contracts/userID.sol",
  "abi": [
    {
      "anonymous": false,
      "inputs": [
        {
          "indexed": false,
          "internalType": "bool",
          "name": "verified",
          "type": "bool"
        }
      ],
      "name": "AgeVerified",
      "type": "event"
    },
    {
      "anonymous": false,
      "inputs": [
        {
          "indexed": false,
          "internalType": "uint256",
          "name": "amount",
          "type": "uint256"
        },
        {
          "indexed": true,
          "internalType": "address",
          "name": "userList",
          "type": "address"
        }
      ],
      "name": "idCreated",
      "type": "event"
    },
    {
      "inputs": [
        {
          "internalType": "address",
          "name": "",
          "type": "address"
        }
      ],
      "name": "UserStruct",
      "outputs": [
        {
          "internalType": "string",
          "name": "fname",
          "type": "string"
        },
        {
          "internalType": "string",
          "name": "lname",
          "type": "string"
        },
        {
          "components": [
            {
              "internalType": "uint256",
              "name": "year",
              "type": "uint256"
            },
            {
              "internalType": "uint256",
              "name": "month",
              "type": "uint256"
            },
            {
              "internalType": "uint256",
              "name": "day",
              "type": "uint256"
            }
          ],
          "internalType": "struct UserId.DOB",
          "name": "dob",
          "type": "tuple"
        },
        {
          "internalType": "string",
          "name": "country",
          "type": "string"
        },
        {
          "internalType": "bool",
          "name": "isVerified",
          "type": "bool"
        },
        {
          "internalType": "uint256",
          "name": "createTime",
          "type": "uint256"
        },
        {
          "internalType": "uint256",
          "name": "index",
          "type": "uint256"
        },
        {
          "internalType": "bool",
          "name": "ageVerified",
          "type": "bool"
        }
      ],
      "stateMutability": "view",
      "type": "function"
    },
    {
      "inputs": [
        {
          "internalType": "address",
          "name": "userAddress",
          "type": "address"
        },
        {
          "internalType": "string",
          "name": "fname",
          "type": "string"
        },
        {
          "internalType": "string",
          "name": "lname",
          "type": "string"
        },
        {
          "internalType": "uint256",
          "name": "year",
          "type": "uint256"
        },
        {
          "internalType": "uint256",
          "name": "month",
          "type": "uint256"
        },
        {
          "internalType": "uint256",
          "name": "day",
          "type": "uint256"
        },
        {
          "internalType": "string",
          "name": "country",
          "type": "string"
        }
      ],
      "name": "createUserId",
      "outputs": [
        {
          "internalType": "bool",
          "name": "success",
          "type": "bool"
        }
      ],
      "stateMutability": "nonpayable",
      "type": "function"
    },
    {
      "inputs": [
        {
          "internalType": "address",
          "name": "userAddress",
          "type": "address"
        }
      ],
      "name": "isVerified",
      "outputs": [
        {
          "internalType": "bool",
          "name": "isIndeed",
          "type": "bool"
        }
      ],
      "stateMutability": "view",
      "type": "function"
    },
    {
      "inputs": [
        {
          "internalType": "address",
          "name": "userAddress",
          "type": "address"
        },
        {
          "internalType": "string",
          "name": "country",
          "type": "string"
        }
      ],
      "name": "locationVerified",
      "outputs": [
        {
          "internalType": "bool",
          "name": "success",
          "type": "bool"
        }
      ],
      "stateMutability": "view",
      "type": "function"
    },
    {
      "inputs": [
        {
          "internalType": "uint256",
          "name": "",
          "type": "uint256"
        }
      ],
      "name": "userList",
      "outputs": [
        {
          "internalType": "address",
          "name": "",
          "type": "address"
        }
      ],
      "stateMutability": "view",
      "type": "function"
    },
    {
      "inputs": [
        {
          "internalType": "address",
          "name": "userAddress",
          "type": "address"
        },
        {
          "internalType": "uint256",
          "name": "ageLimit",
          "type": "uint256"
        }
      ],
      "name": "verifyAgeLimit",
      "outputs": [
        {
          "internalType": "bool",
          "name": "verify",
          "type": "bool"
        }
      ],
      "stateMutability": "nonpayable",
      "type": "function"
    }
  ],
  "bytecode": "0x608060405234801561001057600080fd5b5061173d806100206000396000f3fe608060405234801561001057600080fd5b50600436106100625760003560e01c8063147e6d9f1461006757806346ef80fc146100975780634c93c11f146100c757806398760665146100f75780639f4216e81461012e578063b9209e331461015e575b600080fd5b610081600480360381019061007c9190610c5a565b61018e565b60405161008e9190610d6b565b60405180910390f35b6100b160048036038101906100ac9190610d86565b6104b2565b6040516100be9190610d6b565b60405180910390f35b6100e160048036038101906100dc9190610de2565b61059f565b6040516100ee9190610d6b565b60405180910390f35b610111600480360381019061010c9190610e22565b61073d565b604051610125989796959493929190610f2e565b60405180910390f35b61014860048036038101906101439190610fc3565b61095f565b6040516101559190610fff565b60405180910390f35b61017860048036038101906101739190610e22565b61099e565b6040516101859190610d6b565b60405180910390f35b60006101998861099e565b156101d9576040517f08c379a00000000000000000000000000000000000000000000000000000000081526004016101d09061108c565b60405180910390fd5b86600160008a73ffffffffffffffffffffffffffffffffffffffff1673ffffffffffffffffffffffffffffffffffffffff168152602001908152602001600020600001908161022891906112b8565b5085600160008a73ffffffffffffffffffffffffffffffffffffffff1673ffffffffffffffffffffffffffffffffffffffff168152602001908152602001600020600101908161027891906112b8565b50604051806060016040528086815260200185815260200184815250600160008a73ffffffffffffffffffffffffffffffffffffffff1673ffffffffffffffffffffffffffffffffffffffff16815260200190815260200160002060020160008201518160000155602082015181600101556040820151816002015590505081600160008a73ffffffffffffffffffffffffffffffffffffffff1673ffffffffffffffffffffffffffffffffffffffff168152602001908152602001600020600501908161034691906112b8565b5060018060008a73ffffffffffffffffffffffffffffffffffffffff1673ffffffffffffffffffffffffffffffffffffffff16815260200190815260200160002060060160006101000a81548160ff0219169083151502179055506000889080600181540180825580915050600190039060005260206000200160009091909190916101000a81548173ffffffffffffffffffffffffffffffffffffffff021916908373ffffffffffffffffffffffffffffffffffffffff160217905550600160008054905061041691906113b9565b600160008a73ffffffffffffffffffffffffffffffffffffffff1673ffffffffffffffffffffffffffffffffffffffff1681526020019081526020016000206008018190555042600160008a73ffffffffffffffffffffffffffffffffffffffff1673ffffffffffffffffffffffffffffffffffffffff1681526020019081526020016000206007018190555060019050979650505050505050565b60006104bd8361099e565b6104fc576040517f08c379a00000000000000000000000000000000000000000000000000000000081526004016104f39061145f565b60405180910390fd5b8160405160200161050d91906114bb565b60405160208183030381529060405280519060200120600160008573ffffffffffffffffffffffffffffffffffffffff1673ffffffffffffffffffffffffffffffffffffffff1681526020019081526020016000206005016040516020016105759190611555565b604051602081830303815290604052805190602001201461059557600080fd5b6001905092915050565b60006105aa8361099e565b6105e9576040517f08c379a00000000000000000000000000000000000000000000000000000000081526004016105e0906115b8565b60405180910390fd5b60006107b26301e187e0426105fe9190611607565b6106089190611638565b90506000600160008673ffffffffffffffffffffffffffffffffffffffff1673ffffffffffffffffffffffffffffffffffffffff168152602001908152602001600020600201600001548261065d91906113b9565b9050838110156106a2576040517f08c379a0000000000000000000000000000000000000000000000000000000008152600401610699906116b8565b60405180910390fd5b7f3d8a5b8ac1f407033049f627a1fc09b7ea96f79b479d5a66001261f49ee06e0b60016040516106d29190610d6b565b60405180910390a160018060008773ffffffffffffffffffffffffffffffffffffffff1673ffffffffffffffffffffffffffffffffffffffff16815260200190815260200160002060090160006101000a81548160ff02191690831515021790559250505092915050565b6001602052806000526040600020600091509050806000018054610760906110db565b80601f016020809104026020016040519081016040528092919081815260200182805461078c906110db565b80156107d95780601f106107ae576101008083540402835291602001916107d9565b820191906000526020600020905b8154815290600101906020018083116107bc57829003601f168201915b5050505050908060010180546107ee906110db565b80601f016020809104026020016040519081016040528092919081815260200182805461081a906110db565b80156108675780601f1061083c57610100808354040283529160200191610867565b820191906000526020600020905b81548152906001019060200180831161084a57829003601f168201915b505050505090806002016040518060600160405290816000820154815260200160018201548152602001600282015481525050908060050180546108aa906110db565b80601f01602080910402602001604051908101604052809291908181526020018280546108d6906110db565b80156109235780601f106108f857610100808354040283529160200191610923565b820191906000526020600020905b81548152906001019060200180831161090657829003601f168201915b5050505050908060060160009054906101000a900460ff16908060070154908060080154908060090160009054906101000a900460ff16905088565b6000818154811061096f57600080fd5b906000526020600020016000915054906101000a900473ffffffffffffffffffffffffffffffffffffffff1681565b600080600080549050036109b55760009050610a67565b8173ffffffffffffffffffffffffffffffffffffffff166000600160008573ffffffffffffffffffffffffffffffffffffffff1673ffffffffffffffffffffffffffffffffffffffff1681526020019081526020016000206008015481548110610a2257610a216116d8565b5b9060005260206000200160009054906101000a900473ffffffffffffffffffffffffffffffffffffffff1673ffffffffffffffffffffffffffffffffffffffff161490505b919050565b6000604051905090565b600080fd5b600080fd5b600073ffffffffffffffffffffffffffffffffffffffff82169050919050565b6000610aab82610a80565b9050919050565b610abb81610aa0565b8114610ac657600080fd5b50565b600081359050610ad881610ab2565b92915050565b600080fd5b600080fd5b6000601f19601f8301169050919050565b7f4e487b7100000000000000000000000000000000000000000000000000000000600052604160045260246000fd5b610b3182610ae8565b810181811067ffffffffffffffff82111715610b5057610b4f610af9565b5b80604052505050565b6000610b63610a6c565b9050610b6f8282610b28565b919050565b600067ffffffffffffffff821115610b8f57610b8e610af9565b5b610b9882610ae8565b9050602081019050919050565b82818337600083830152505050565b6000610bc7610bc284610b74565b610b59565b905082815260208101848484011115610be357610be2610ae3565b5b610bee848285610ba5565b509392505050565b600082601f830112610c0b57610c0a610ade565b5b8135610c1b848260208601610bb4565b91505092915050565b6000819050919050565b610c3781610c24565b8114610c4257600080fd5b50565b600081359050610c5481610c2e565b92915050565b600080600080600080600060e0888a031215610c7957610c78610a76565b5b6000610c878a828b01610ac9565b975050602088013567ffffffffffffffff811115610ca857610ca7610a7b565b5b610cb48a828b01610bf6565b965050604088013567ffffffffffffffff811115610cd557610cd4610a7b565b5b610ce18a828b01610bf6565b9550506060610cf28a828b01610c45565b9450506080610d038a828b01610c45565b93505060a0610d148a828b01610c45565b92505060c088013567ffffffffffffffff811115610d3557610d34610a7b565b5b610d418a828b01610bf6565b91505092959891949750929550565b60008115159050919050565b610d6581610d50565b82525050565b6000602082019050610d806000830184610d5c565b92915050565b60008060408385031215610d9d57610d9c610a76565b5b6000610dab85828601610ac9565b925050602083013567ffffffffffffffff811115610dcc57610dcb610a7b565b5b610dd885828601610bf6565b9150509250929050565b60008060408385031215610df957610df8610a76565b5b6000610e0785828601610ac9565b9250506020610e1885828601610c45565b9150509250929050565b600060208284031215610e3857610e37610a76565b5b6000610e4684828501610ac9565b91505092915050565b600081519050919050565b600082825260208201905092915050565b60005b83811015610e89578082015181840152602081019050610e6e565b60008484015250505050565b6000610ea082610e4f565b610eaa8185610e5a565b9350610eba818560208601610e6b565b610ec381610ae8565b840191505092915050565b610ed781610c24565b82525050565b606082016000820151610ef36000850182610ece565b506020820151610f066020850182610ece565b506040820151610f196040850182610ece565b50505050565b610f2881610c24565b82525050565b6000610140820190508181036000830152610f49818b610e95565b90508181036020830152610f5d818a610e95565b9050610f6c6040830189610edd565b81810360a0830152610f7e8188610e95565b9050610f8d60c0830187610d5c565b610f9a60e0830186610f1f565b610fa8610100830185610f1f565b610fb6610120830184610d5c565b9998505050505050505050565b600060208284031215610fd957610fd8610a76565b5b6000610fe784828501610c45565b91505092915050565b610ff981610aa0565b82525050565b60006020820190506110146000830184610ff0565b92915050565b7f5573657220616c72656164792065786973747320616e6420697320766572696660008201527f6965640000000000000000000000000000000000000000000000000000000000602082015250565b6000611076602383610e5a565b91506110818261101a565b604082019050919050565b600060208201905081810360008301526110a581611069565b9050919050565b7f4e487b7100000000000000000000000000000000000000000000000000000000600052602260045260246000fd5b600060028204905060018216806110f357607f821691505b602082108103611106576111056110ac565b5b50919050565b60008190508160005260206000209050919050565b60006020601f8301049050919050565b600082821b905092915050565b60006008830261116e7fffffffffffffffffffffffffffffffffffffffffffffffffffffffffffffffff82611131565b6111788683611131565b95508019841693508086168417925050509392505050565b6000819050919050565b60006111b56111b06111ab84610c24565b611190565b610c24565b9050919050565b6000819050919050565b6111cf8361119a565b6111e36111db826111bc565b84845461113e565b825550505050565b600090565b6111f86111eb565b6112038184846111c6565b505050565b5b818110156112275761121c6000826111f0565b600181019050611209565b5050565b601f82111561126c5761123d8161110c565b61124684611121565b81016020851015611255578190505b61126961126185611121565b830182611208565b50505b505050565b600082821c905092915050565b600061128f60001984600802611271565b1980831691505092915050565b60006112a8838361127e565b9150826002028217905092915050565b6112c182610e4f565b67ffffffffffffffff8111156112da576112d9610af9565b5b6112e482546110db565b6112ef82828561122b565b600060209050601f8311600181146113225760008415611310578287015190505b61131a858261129c565b865550611382565b601f1984166113308661110c565b60005b8281101561135857848901518255600182019150602085019450602081019050611333565b868310156113755784890151611371601f89168261127e565b8355505b6001600288020188555050505b505050505050565b7f4e487b7100000000000000000000000000000000000000000000000000000000600052601160045260246000fd5b60006113c482610c24565b91506113cf83610c24565b92508282039050818111156113e7576113e661138a565b5b92915050565b7f5573657220646f6573206e6f74206578697374206f72206973206e6f7420766560008201527f7269666965640000000000000000000000000000000000000000000000000000602082015250565b6000611449602683610e5a565b9150611454826113ed565b604082019050919050565b600060208201905081810360008301526114788161143c565b9050919050565b600081905092915050565b600061149582610e4f565b61149f818561147f565b93506114af818560208601610e6b565b80840191505092915050565b60006114c7828461148a565b915081905092915050565b600081546114df816110db565b6114e9818661147f565b9450600182166000811461150457600181146115195761154c565b60ff198316865281151582028601935061154c565b6115228561110c565b60005b8381101561154457815481890152600182019150602081019050611525565b838801955050505b50505092915050565b600061156182846114d2565b915081905092915050565b7f55736572206e6f7420616c6c6f77656400000000000000000000000000000000600082015250565b60006115a2601083610e5a565b91506115ad8261156c565b602082019050919050565b600060208201905081810360008301526115d181611595565b9050919050565b7f4e487b7100000000000000000000000000000000000000000000000000000000600052601260045260246000fd5b600061161282610c24565b915061161d83610c24565b92508261162d5761162c6115d8565b5b828204905092915050565b600061164382610c24565b915061164e83610c24565b92508282019050808211156116665761166561138a565b5b92915050565b7f556e646572203138000000000000000000000000000000000000000000000000600082015250565b60006116a2600883610e5a565b91506116ad8261166c565b602082019050919050565b600060208201905081810360008301526116d181611695565b9050919050565b7f4e487b7100000000000000000000000000000000000000000000000000000000600052603260045260246000fdfea26469706673582212203a1081f08c325a496e2976f24cb88f52f55f5a6147031fc21c7d1dfebd8527bd64736f6c63430008130033",
  "linkReferences": {},
  "deployedLinkReferences": {}
}